{
  "_format": "hh-sol-artifact-1",
  "contractName": "SurveyFactoryV1",
  "sourceName": "contracts/SurveyFactoryV1.sol",
  "abi": [
    {
      "inputs": [],
      "name": "InvalidInitialization",
      "type": "error"
    },
    {
      "inputs": [],
      "name": "NotInitializing",
      "type": "error"
    },
    {
      "inputs": [],
      "name": "ReentrancyGuardReentrantCall",
      "type": "error"
    },
    {
      "anonymous": false,
      "inputs": [
        {
          "indexed": false,
          "internalType": "uint64",
          "name": "version",
          "type": "uint64"
        }
      ],
      "name": "Initialized",
      "type": "event"
    },
    {
      "anonymous": false,
      "inputs": [
        {
          "indexed": false,
          "internalType": "address",
          "name": "surveyAddress",
          "type": "address"
        }
      ],
      "name": "SurveyCreated",
      "type": "event"
    },
    {
      "inputs": [],
      "name": "KAIA_DECIMALS",
      "outputs": [
        {
          "internalType": "uint256",
          "name": "",
          "type": "uint256"
        }
      ],
      "stateMutability": "view",
      "type": "function"
    },
    {
      "inputs": [],
      "name": "KAIA_MULTIPLIER",
      "outputs": [
        {
          "internalType": "uint256",
          "name": "",
          "type": "uint256"
        }
      ],
      "stateMutability": "view",
      "type": "function"
    },
    {
      "inputs": [],
      "name": "MIN_SURVEY_POOL",
      "outputs": [
        {
          "internalType": "uint256",
          "name": "",
          "type": "uint256"
        }
      ],
      "stateMutability": "view",
      "type": "function"
    },
    {
      "inputs": [],
      "name": "MIN_SURVEY_REWARD",
      "outputs": [
        {
          "internalType": "uint256",
          "name": "",
          "type": "uint256"
        }
      ],
      "stateMutability": "view",
      "type": "function"
    },
    {
      "inputs": [],
      "name": "burnRate",
      "outputs": [
        {
          "internalType": "uint256",
          "name": "",
          "type": "uint256"
        }
      ],
      "stateMutability": "view",
      "type": "function"
    },
    {
      "inputs": [
        {
          "internalType": "string",
          "name": "_title",
          "type": "string"
        },
        {
          "internalType": "string",
          "name": "_description",
          "type": "string"
        },
        {
          "components": [
            {
              "internalType": "string",
              "name": "question",
              "type": "string"
            },
            {
              "internalType": "string[]",
              "name": "options",
              "type": "string[]"
            }
          ],
          "internalType": "struct SurveyV1.Question[]",
          "name": "_questions",
          "type": "tuple[]"
        },
        {
          "internalType": "uint256",
          "name": "_targetNumber",
          "type": "uint256"
        },
        {
          "internalType": "uint256",
          "name": "_lockedUntil",
          "type": "uint256"
        }
      ],
      "name": "createSurvey",
      "outputs": [],
      "stateMutability": "payable",
      "type": "function"
    },
    {
      "inputs": [],
      "name": "getSurveyCount",
      "outputs": [
        {
          "internalType": "uint256",
          "name": "",
          "type": "uint256"
        }
      ],
      "stateMutability": "view",
      "type": "function"
    },
    {
      "inputs": [],
      "name": "getSurveys",
      "outputs": [
        {
          "internalType": "address[]",
          "name": "",
          "type": "address[]"
        }
      ],
      "stateMutability": "view",
      "type": "function"
    },
    {
      "inputs": [
        {
          "internalType": "contract ISemaphore",
          "name": "_semaphore",
          "type": "address"
        },
        {
          "internalType": "address",
          "name": "_manager",
          "type": "address"
        }
      ],
      "name": "initialize",
      "outputs": [],
      "stateMutability": "nonpayable",
      "type": "function"
    },
    {
      "inputs": [],
      "name": "manager",
      "outputs": [
        {
          "internalType": "address",
          "name": "",
          "type": "address"
        }
      ],
      "stateMutability": "view",
      "type": "function"
    },
    {
      "inputs": [],
      "name": "owner",
      "outputs": [
        {
          "internalType": "address",
          "name": "",
          "type": "address"
        }
      ],
      "stateMutability": "view",
      "type": "function"
    },
    {
      "inputs": [],
      "name": "semaphore",
      "outputs": [
        {
          "internalType": "contract ISemaphore",
          "name": "",
          "type": "address"
        }
      ],
      "stateMutability": "view",
      "type": "function"
    },
    {
      "inputs": [
        {
          "internalType": "uint256",
          "name": "_burnRate",
          "type": "uint256"
        }
      ],
      "name": "setBurnRate",
      "outputs": [],
      "stateMutability": "nonpayable",
      "type": "function"
    },
    {
      "inputs": [
        {
          "internalType": "uint256",
          "name": "",
          "type": "uint256"
        }
      ],
      "name": "surveys",
      "outputs": [
        {
          "internalType": "address",
          "name": "",
          "type": "address"
        }
      ],
      "stateMutability": "view",
      "type": "function"
    },
    {
      "stateMutability": "payable",
      "type": "receive"
    }
  ],
  "bytecode": "0x60806040526101f4600155348015601557600080fd5b50600160008190555061559f8061002d6000396000f3fe6080604052600436106100e15760003560e01c806386e68b901161007f5780639fe140b1116100595780639fe140b11461029a578063bed99850146102c5578063de481aa2146102f0578063f63374211461031b576100e8565b806386e68b90146102075780638da5cb5b146102445780639661424d1461026f576100e8565b8063481c6a75116100bb578063481c6a751461015d578063485cc955146101885780637b5d2534146101b15780637dec8296146101dc576100e8565b80631749d256146100ed578063189d165e14610118578063325eb60914610141576100e8565b366100e857005b600080fd5b3480156100f957600080fd5b50610102610346565b60405161010f9190610ad9565b60405180910390f35b34801561012457600080fd5b5061013f600480360381019061013a9190610b34565b610357565b005b61015b60048036038101906101569190610f00565b610436565b005b34801561016957600080fd5b50610172610660565b60405161017f9190611010565b60405180910390f35b34801561019457600080fd5b506101af60048036038101906101aa9190611095565b610686565b005b3480156101bd57600080fd5b506101c66108d0565b6040516101d39190611134565b60405180910390f35b3480156101e857600080fd5b506101f16108f6565b6040516101fe919061120d565b60405180910390f35b34801561021357600080fd5b5061022e60048036038101906102299190610b34565b610984565b60405161023b9190611010565b60405180910390f35b34801561025057600080fd5b506102596109c3565b6040516102669190611010565b60405180910390f35b34801561027b57600080fd5b506102846109e9565b6040516102919190610ad9565b60405180910390f35b3480156102a657600080fd5b506102af610a06565b6040516102bc9190610ad9565b60405180910390f35b3480156102d157600080fd5b506102da610a13565b6040516102e79190610ad9565b60405180910390f35b3480156102fc57600080fd5b50610305610a19565b6040516103129190610ad9565b60405180910390f35b34801561032757600080fd5b50610330610a36565b60405161033d9190610ad9565b60405180910390f35b6012600a6103549190611391565b81565b600460009054906101000a900473ffffffffffffffffffffffffffffffffffffffff1673ffffffffffffffffffffffffffffffffffffffff163373ffffffffffffffffffffffffffffffffffffffff16146103e7576040517f08c379a00000000000000000000000000000000000000000000000000000000081526004016103de9061145f565b60405180910390fd5b6103e881111561042c576040517f08c379a0000000000000000000000000000000000000000000000000000000008152600401610423906114cb565b60405180910390fd5b8060018190555050565b61043e610a3b565b6012600a61044c9190611391565b603261045891906114eb565b34101561049a576040517f08c379a00000000000000000000000000000000000000000000000000000000081526004016104919061159f565b60405180910390fd5b600a6012600a6104aa9190611391565b6104b491906115ee565b826127106001546127106104c8919061161f565b346104d391906115ee565b6104dd91906114eb565b6104e791906115ee565b1015610528576040517f08c379a000000000000000000000000000000000000000000000000000000000815260040161051f906116c5565b60405180910390fd5b6000348686868686600154600260009054906101000a900473ffffffffffffffffffffffffffffffffffffffff16600560009054906101000a900473ffffffffffffffffffffffffffffffffffffffff1660405161058590610ab3565b610596989796959493929190611965565b6040518091039082f09050801580156105b3573d6000803e3d6000fd5b5090506003819080600181540180825580915050600190039060005260206000200160009091909190916101000a81548173ffffffffffffffffffffffffffffffffffffffff021916908373ffffffffffffffffffffffffffffffffffffffff1602179055507f804e43ec460947de9059892e78cc0bc33913dce13ca501305ee4518d2d2f54b8816040516106489190611010565b60405180910390a150610659610a81565b5050505050565b600560009054906101000a900473ffffffffffffffffffffffffffffffffffffffff1681565b6000610690610a8b565b905060008160000160089054906101000a900460ff1615905060008260000160009054906101000a900467ffffffffffffffff1690506000808267ffffffffffffffff161480156106de5750825b9050600060018367ffffffffffffffff16148015610713575060003073ffffffffffffffffffffffffffffffffffffffff163b145b905081158015610721575080155b15610758576040517ff92ee8a900000000000000000000000000000000000000000000000000000000815260040160405180910390fd5b60018560000160006101000a81548167ffffffffffffffff021916908367ffffffffffffffff16021790555083156107a85760018560000160086101000a81548160ff0219169083151502179055505b86600260006101000a81548173ffffffffffffffffffffffffffffffffffffffff021916908373ffffffffffffffffffffffffffffffffffffffff16021790555033600460006101000a81548173ffffffffffffffffffffffffffffffffffffffff021916908373ffffffffffffffffffffffffffffffffffffffff16021790555085600560006101000a81548173ffffffffffffffffffffffffffffffffffffffff021916908373ffffffffffffffffffffffffffffffffffffffff16021790555083156108c75760008560000160086101000a81548160ff0219169083151502179055507fc7f505b2f371ae2175ee4913f4499e1f2633a7b5936321eed1cdaeb6115181d260016040516108be9190611a47565b60405180910390a15b50505050505050565b600260009054906101000a900473ffffffffffffffffffffffffffffffffffffffff1681565b6060600380548060200260200160405190810160405280929190818152602001828054801561097a57602002820191906000526020600020905b8160009054906101000a900473ffffffffffffffffffffffffffffffffffffffff1673ffffffffffffffffffffffffffffffffffffffff1681526020019060010190808311610930575b5050505050905090565b6003818154811061099457600080fd5b906000526020600020016000915054906101000a900473ffffffffffffffffffffffffffffffffffffffff1681565b600460009054906101000a900473ffffffffffffffffffffffffffffffffffffffff1681565b600a6012600a6109f99190611391565b610a0391906115ee565b81565b6000600380549050905090565b60015481565b6012600a610a279190611391565b6032610a3391906114eb565b81565b601281565b600260005403610a77576040517f3ee5aeb500000000000000000000000000000000000000000000000000000000815260040160405180910390fd5b6002600081905550565b6001600081905550565b60007ff0c57e16840df040f15088dc2f81fe391c3923bec73e23a9662efc9c229c6a00905090565b613b0780611a6383390190565b6000819050919050565b610ad381610ac0565b82525050565b6000602082019050610aee6000830184610aca565b92915050565b6000604051905090565b600080fd5b600080fd5b610b1181610ac0565b8114610b1c57600080fd5b50565b600081359050610b2e81610b08565b92915050565b600060208284031215610b4a57610b49610afe565b5b6000610b5884828501610b1f565b91505092915050565b600080fd5b600080fd5b6000601f19601f8301169050919050565b7f4e487b7100000000000000000000000000000000000000000000000000000000600052604160045260246000fd5b610bb482610b6b565b810181811067ffffffffffffffff82111715610bd357610bd2610b7c565b5b80604052505050565b6000610be6610af4565b9050610bf28282610bab565b919050565b600067ffffffffffffffff821115610c1257610c11610b7c565b5b610c1b82610b6b565b9050602081019050919050565b82818337600083830152505050565b6000610c4a610c4584610bf7565b610bdc565b905082815260208101848484011115610c6657610c65610b66565b5b610c71848285610c28565b509392505050565b600082601f830112610c8e57610c8d610b61565b5b8135610c9e848260208601610c37565b91505092915050565b600067ffffffffffffffff821115610cc257610cc1610b7c565b5b602082029050602081019050919050565b600080fd5b600080fd5b600080fd5b600067ffffffffffffffff821115610cfd57610cfc610b7c565b5b602082029050602081019050919050565b6000610d21610d1c84610ce2565b610bdc565b90508083825260208201905060208402830185811115610d4457610d43610cd3565b5b835b81811015610d8b57803567ffffffffffffffff811115610d6957610d68610b61565b5b808601610d768982610c79565b85526020850194505050602081019050610d46565b5050509392505050565b600082601f830112610daa57610da9610b61565b5b8135610dba848260208601610d0e565b91505092915050565b600060408284031215610dd957610dd8610cd8565b5b610de36040610bdc565b9050600082013567ffffffffffffffff811115610e0357610e02610cdd565b5b610e0f84828501610c79565b600083015250602082013567ffffffffffffffff811115610e3357610e32610cdd565b5b610e3f84828501610d95565b60208301525092915050565b6000610e5e610e5984610ca7565b610bdc565b90508083825260208201905060208402830185811115610e8157610e80610cd3565b5b835b81811015610ec857803567ffffffffffffffff811115610ea657610ea5610b61565b5b808601610eb38982610dc3565b85526020850194505050602081019050610e83565b5050509392505050565b600082601f830112610ee757610ee6610b61565b5b8135610ef7848260208601610e4b565b91505092915050565b600080600080600060a08688031215610f1c57610f1b610afe565b5b600086013567ffffffffffffffff811115610f3a57610f39610b03565b5b610f4688828901610c79565b955050602086013567ffffffffffffffff811115610f6757610f66610b03565b5b610f7388828901610c79565b945050604086013567ffffffffffffffff811115610f9457610f93610b03565b5b610fa088828901610ed2565b9350506060610fb188828901610b1f565b9250506080610fc288828901610b1f565b9150509295509295909350565b600073ffffffffffffffffffffffffffffffffffffffff82169050919050565b6000610ffa82610fcf565b9050919050565b61100a81610fef565b82525050565b60006020820190506110256000830184611001565b92915050565b600061103682610fef565b9050919050565b6110468161102b565b811461105157600080fd5b50565b6000813590506110638161103d565b92915050565b61107281610fef565b811461107d57600080fd5b50565b60008135905061108f81611069565b92915050565b600080604083850312156110ac576110ab610afe565b5b60006110ba85828601611054565b92505060206110cb85828601611080565b9150509250929050565b6000819050919050565b60006110fa6110f56110f084610fcf565b6110d5565b610fcf565b9050919050565b600061110c826110df565b9050919050565b600061111e82611101565b9050919050565b61112e81611113565b82525050565b60006020820190506111496000830184611125565b92915050565b600081519050919050565b600082825260208201905092915050565b6000819050602082019050919050565b61118481610fef565b82525050565b6000611196838361117b565b60208301905092915050565b6000602082019050919050565b60006111ba8261114f565b6111c4818561115a565b93506111cf8361116b565b8060005b838110156112005781516111e7888261118a565b97506111f2836111a2565b9250506001810190506111d3565b5085935050505092915050565b6000602082019050818103600083015261122781846111af565b905092915050565b7f4e487b7100000000000000000000000000000000000000000000000000000000600052601160045260246000fd5b60008160011c9050919050565b6000808291508390505b60018511156112b5578086048111156112915761129061122f565b5b60018516156112a05780820291505b80810290506112ae8561125e565b9450611275565b94509492505050565b6000826112ce576001905061138a565b816112dc576000905061138a565b81600181146112f257600281146112fc5761132b565b600191505061138a565b60ff84111561130e5761130d61122f565b5b8360020a9150848211156113255761132461122f565b5b5061138a565b5060208310610133831016604e8410600b84101617156113605782820a90508381111561135b5761135a61122f565b5b61138a565b61136d848484600161126b565b925090508184048111156113845761138361122f565b5b81810290505b9392505050565b600061139c82610ac0565b91506113a783610ac0565b92506113d47fffffffffffffffffffffffffffffffffffffffffffffffffffffffffffffffff84846112be565b905092915050565b600082825260208201905092915050565b7f4f6e6c79206f776e65722063616e2063616c6c20746869732066756e6374696f60008201527f6e00000000000000000000000000000000000000000000000000000000000000602082015250565b60006114496021836113dc565b9150611454826113ed565b604082019050919050565b600060208201905081810360008301526114788161143c565b9050919050565b7f4275726e207261746520746f6f20686967680000000000000000000000000000600082015250565b60006114b56012836113dc565b91506114c08261147f565b602082019050919050565b600060208201905081810360008301526114e4816114a8565b9050919050565b60006114f682610ac0565b915061150183610ac0565b925082820261150f81610ac0565b915082820484148315176115265761152561122f565b5b5092915050565b7f4174206c65617374203530206b61696120726571756972656420746f2063726560008201527f6174652061207375727665790000000000000000000000000000000000000000602082015250565b6000611589602c836113dc565b91506115948261152d565b604082019050919050565b600060208201905081810360008301526115b88161157c565b9050919050565b7f4e487b7100000000000000000000000000000000000000000000000000000000600052601260045260246000fd5b60006115f982610ac0565b915061160483610ac0565b925082611614576116136115bf565b5b828204905092915050565b600061162a82610ac0565b915061163583610ac0565b925082820390508181111561164d5761164c61122f565b5b92915050565b7f4174206c6561737420302e31206b61696120726571756972656420706572207460008201527f6172676574206e756d6265720000000000000000000000000000000000000000602082015250565b60006116af602c836113dc565b91506116ba82611653565b604082019050919050565b600060208201905081810360008301526116de816116a2565b9050919050565b600081519050919050565b60005b8381101561170e5780820151818401526020810190506116f3565b60008484015250505050565b6000611725826116e5565b61172f81856113dc565b935061173f8185602086016116f0565b61174881610b6b565b840191505092915050565b600081519050919050565b600082825260208201905092915050565b6000819050602082019050919050565b600082825260208201905092915050565b600061179b826116e5565b6117a5818561177f565b93506117b58185602086016116f0565b6117be81610b6b565b840191505092915050565b600081519050919050565b600082825260208201905092915050565b6000819050602082019050919050565b60006118018383611790565b905092915050565b6000602082019050919050565b6000611821826117c9565b61182b81856117d4565b93508360208202850161183d856117e5565b8060005b85811015611879578484038952815161185a85826117f5565b945061186583611809565b925060208a01995050600181019050611841565b50829750879550505050505092915050565b600060408301600083015184820360008601526118a88282611790565b915050602083015184820360208601526118c28282611816565b9150508091505092915050565b60006118db838361188b565b905092915050565b6000602082019050919050565b60006118fb82611753565b611905818561175e565b9350836020820285016119178561176f565b8060005b85811015611953578484038952815161193485826118cf565b945061193f836118e3565b925060208a0199505060018101905061191b565b50829750879550505050505092915050565b6000610100820190508181036000830152611980818b61171a565b90508181036020830152611994818a61171a565b905081810360408301526119a881896118f0565b90506119b76060830188610aca565b6119c46080830187610aca565b6119d160a0830186610aca565b6119de60c0830185611125565b6119eb60e0830184611001565b9998505050505050505050565b6000819050919050565b600067ffffffffffffffff82169050919050565b6000611a31611a2c611a27846119f8565b6110d5565b611a02565b9050919050565b611a4181611a16565b82525050565b6000602082019050611a5c6000830184611a38565b9291505056fe60a06040526000600a60006101000a81548160ff021916908315150217905550604051613b07380380613b07833981810160405281019061004091906109ff565b3373ffffffffffffffffffffffffffffffffffffffff1660808173ffffffffffffffffffffffffffffffffffffffff1681525050600060068190555060005b865181101561022957600087828151811061009d5761009c610b09565b5b6020026020010151602001515167ffffffffffffffff8111156100c3576100c261058e565b5b6040519080825280602002602001820160405280156100f657816020015b60608152602001906001900390816100e15790505b50905060005b88838151811061010f5761010e610b09565b5b602002602001015160200151518110156101875788838151811061013657610135610b09565b5b602002602001015160200151818151811061015457610153610b09565b5b602002602001015182828151811061016f5761016e610b09565b5b602002602001018190525080806001019150506100fc565b50600860405180604001604052808a85815181106101a8576101a7610b09565b5b602002602001015160000151815260200183815250908060018154018082558091505060019003906000526020600020906002020160009091909190915060008201518160000190816101fb9190610d4f565b506020820151816001019080519060200190610218929190610485565b50505050808060010191505061007f565b5087600290816102399190610d4f565b5086600390816102499190610d4f565b50826007819055508460048190555042600b81905550620151808461026e9190610e50565b600b5461027b9190610e92565b600c81905550336000806101000a81548173ffffffffffffffffffffffffffffffffffffffff021916908373ffffffffffffffffffffffffffffffffffffffff16021790555081600d60006101000a81548173ffffffffffffffffffffffffffffffffffffffff021916908373ffffffffffffffffffffffffffffffffffffffff160217905550600d60009054906101000a900473ffffffffffffffffffffffffffffffffffffffff1673ffffffffffffffffffffffffffffffffffffffff1663575185ed6040518163ffffffff1660e01b81526004016020604051808303816000875af1158015610371573d6000803e3d6000fd5b505050506040513d601f19601f820116820180604052508101906103959190610ec6565b600e8190555080600160006101000a81548173ffffffffffffffffffffffffffffffffffffffff021916908373ffffffffffffffffffffffffffffffffffffffff16021790555061dead73ffffffffffffffffffffffffffffffffffffffff166108fc612710600754346104099190610e50565b6104139190610f22565b9081150290604051600060405180830381858888f1935050505015801561043e573d6000803e3d6000fd5b50600454612710600754346104539190610e50565b61045d9190610f22565b346104689190610f53565b6104729190610f22565b6005819055505050505050505050610f87565b8280548282559060005260206000209081019282156104cd579160200282015b828111156104cc5782518290816104bc9190610d4f565b50916020019190600101906104a5565b5b5090506104da91906104de565b5090565b5b808211156104fe57600081816104f59190610502565b506001016104df565b5090565b50805461050e90610b72565b6000825580601f10610520575061053f565b601f01602090049060005260206000209081019061053e9190610542565b5b50565b5b8082111561055b576000816000905550600101610543565b5090565b6000604051905090565b600080fd5b600080fd5b600080fd5b600080fd5b6000601f19601f8301169050919050565b7f4e487b7100000000000000000000000000000000000000000000000000000000600052604160045260246000fd5b6105c68261057d565b810181811067ffffffffffffffff821117156105e5576105e461058e565b5b80604052505050565b60006105f861055f565b905061060482826105bd565b919050565b600067ffffffffffffffff8211156106245761062361058e565b5b61062d8261057d565b9050602081019050919050565b60005b8381101561065857808201518184015260208101905061063d565b60008484015250505050565b600061067761067284610609565b6105ee565b90508281526020810184848401111561069357610692610578565b5b61069e84828561063a565b509392505050565b600082601f8301126106bb576106ba610573565b5b81516106cb848260208601610664565b91505092915050565b600067ffffffffffffffff8211156106ef576106ee61058e565b5b602082029050602081019050919050565b600080fd5b600080fd5b600080fd5b600067ffffffffffffffff82111561072a5761072961058e565b5b602082029050602081019050919050565b600061074e6107498461070f565b6105ee565b9050808382526020820190506020840283018581111561077157610770610700565b5b835b818110156107b857805167ffffffffffffffff81111561079657610795610573565b5b8086016107a389826106a6565b85526020850194505050602081019050610773565b5050509392505050565b600082601f8301126107d7576107d6610573565b5b81516107e784826020860161073b565b91505092915050565b60006040828403121561080657610805610705565b5b61081060406105ee565b9050600082015167ffffffffffffffff8111156108305761082f61070a565b5b61083c848285016106a6565b600083015250602082015167ffffffffffffffff8111156108605761085f61070a565b5b61086c848285016107c2565b60208301525092915050565b600061088b610886846106d4565b6105ee565b905080838252602082019050602084028301858111156108ae576108ad610700565b5b835b818110156108f557805167ffffffffffffffff8111156108d3576108d2610573565b5b8086016108e089826107f0565b855260208501945050506020810190506108b0565b5050509392505050565b600082601f83011261091457610913610573565b5b8151610924848260208601610878565b91505092915050565b6000819050919050565b6109408161092d565b811461094b57600080fd5b50565b60008151905061095d81610937565b92915050565b600073ffffffffffffffffffffffffffffffffffffffff82169050919050565b600061098e82610963565b9050919050565b60006109a082610983565b9050919050565b6109b081610995565b81146109bb57600080fd5b50565b6000815190506109cd816109a7565b92915050565b6109dc81610983565b81146109e757600080fd5b50565b6000815190506109f9816109d3565b92915050565b600080600080600080600080610100898b031215610a2057610a1f610569565b5b600089015167ffffffffffffffff811115610a3e57610a3d61056e565b5b610a4a8b828c016106a6565b985050602089015167ffffffffffffffff811115610a6b57610a6a61056e565b5b610a778b828c016106a6565b975050604089015167ffffffffffffffff811115610a9857610a9761056e565b5b610aa48b828c016108ff565b9650506060610ab58b828c0161094e565b9550506080610ac68b828c0161094e565b94505060a0610ad78b828c0161094e565b93505060c0610ae88b828c016109be565b92505060e0610af98b828c016109ea565b9150509295985092959890939650565b7f4e487b7100000000000000000000000000000000000000000000000000000000600052603260045260246000fd5b600081519050919050565b7f4e487b7100000000000000000000000000000000000000000000000000000000600052602260045260246000fd5b60006002820490506001821680610b8a57607f821691505b602082108103610b9d57610b9c610b43565b5b50919050565b60008190508160005260206000209050919050565b60006020601f8301049050919050565b600082821b905092915050565b600060088302610c057fffffffffffffffffffffffffffffffffffffffffffffffffffffffffffffffff82610bc8565b610c0f8683610bc8565b95508019841693508086168417925050509392505050565b6000819050919050565b6000610c4c610c47610c428461092d565b610c27565b61092d565b9050919050565b6000819050919050565b610c6683610c31565b610c7a610c7282610c53565b848454610bd5565b825550505050565b600090565b610c8f610c82565b610c9a818484610c5d565b505050565b5b81811015610cbe57610cb3600082610c87565b600181019050610ca0565b5050565b601f821115610d0357610cd481610ba3565b610cdd84610bb8565b81016020851015610cec578190505b610d00610cf885610bb8565b830182610c9f565b50505b505050565b600082821c905092915050565b6000610d2660001984600802610d08565b1980831691505092915050565b6000610d3f8383610d15565b9150826002028217905092915050565b610d5882610b38565b67ffffffffffffffff811115610d7157610d7061058e565b5b610d7b8254610b72565b610d86828285610cc2565b600060209050601f831160018114610db95760008415610da7578287015190505b610db18582610d33565b865550610e19565b601f198416610dc786610ba3565b60005b82811015610def57848901518255600182019150602085019450602081019050610dca565b86831015610e0c5784890151610e08601f891682610d15565b8355505b6001600288020188555050505b505050505050565b7f4e487b7100000000000000000000000000000000000000000000000000000000600052601160045260246000fd5b6000610e5b8261092d565b9150610e668361092d565b9250828202610e748161092d565b91508282048414831517610e8b57610e8a610e21565b5b5092915050565b6000610e9d8261092d565b9150610ea88361092d565b9250828201905080821115610ec057610ebf610e21565b5b92915050565b600060208284031215610edc57610edb610569565b5b6000610eea8482850161094e565b91505092915050565b7f4e487b7100000000000000000000000000000000000000000000000000000000600052601260045260246000fd5b6000610f2d8261092d565b9150610f388361092d565b925082610f4857610f47610ef3565b5b828204905092915050565b6000610f5e8261092d565b9150610f698361092d565b9250828203905081811115610f8157610f80610e21565b5b92915050565b608051612b65610fa260003960006106b40152612b656000f3fe6080604052600436106101a05760003560e01c806397221ab7116100ec578063bef4876b1161008a578063ce0617ec11610064578063ce0617ec146105b6578063d56b2889146105e1578063eed02e4b146105f8578063ffa1ad7414610621576101a7565b8063bef4876b1461052b578063c793fcf914610556578063c84862d414610581576101a7565b8063b2dc2f45116100c6578063b2dc2f451461046d578063b80777ea146104aa578063bb24fe8a146104d5578063bed9985014610500576101a7565b806397221ab7146103ec578063a0f44c9214610417578063a81d6edd14610442576101a7565b80634a79d50c1161015957806371985c081161013357806371985c08146103405780637284e4161461036b5780637b5d2534146103965780638da5cb5b146103c1576101a7565b80634a79d50c146102c1578063538c7bf9146102ec57806371582e8614610315576101a7565b806317599cc5146101ac578063228cb733146101ec57806324e85faf1461021757806331b1b978146102425780633ccfd60b1461027f578063481c6a7514610296576101a7565b366101a757005b600080fd5b3480156101b857600080fd5b506101d360048036038101906101ce91906117e2565b61064c565b6040516101e3949392919061185f565b60405180910390f35b3480156101f857600080fd5b506102016106ac565b60405161020e91906118a4565b60405180910390f35b34801561022357600080fd5b5061022c6106b2565b60405161023991906118bf565b60405180910390f35b34801561024e57600080fd5b50610269600480360381019061026491906117e2565b6106d6565b604051610276919061196a565b60405180910390f35b34801561028b57600080fd5b5061029461078c565b005b3480156102a257600080fd5b506102ab610936565b6040516102b891906118bf565b60405180910390f35b3480156102cd57600080fd5b506102d661095c565b6040516102e3919061196a565b60405180910390f35b3480156102f857600080fd5b50610313600480360381019061030e9190611cb1565b6109ea565b005b34801561032157600080fd5b5061032a610ded565b60405161033791906118a4565b60405180910390f35b34801561034c57600080fd5b50610355610e04565b60405161036291906118a4565b60405180910390f35b34801561037757600080fd5b50610380610e0a565b60405161038d919061196a565b60405180910390f35b3480156103a257600080fd5b506103ab610e98565b6040516103b89190611d59565b60405180910390f35b3480156103cd57600080fd5b506103d6610ebe565b6040516103e391906118bf565b60405180910390f35b3480156103f857600080fd5b50610401610ee2565b60405161040e9190611f86565b60405180910390f35b34801561042357600080fd5b5061042c6110ac565b60405161043991906118a4565b60405180910390f35b34801561044e57600080fd5b506104576110b2565b60405161046491906118a4565b60405180910390f35b34801561047957600080fd5b50610494600480360381019061048f9190611fa8565b6110b8565b6040516104a191906118a4565b60405180910390f35b3480156104b657600080fd5b506104bf611160565b6040516104cc91906118a4565b60405180910390f35b3480156104e157600080fd5b506104ea611166565b6040516104f791906118a4565b60405180910390f35b34801561050c57600080fd5b5061051561116b565b60405161052291906118a4565b60405180910390f35b34801561053757600080fd5b50610540611171565b60405161054d919061200c565b60405180910390f35b34801561056257600080fd5b5061056b611184565b60405161057891906122eb565b60405180910390f35b34801561058d57600080fd5b5061059661131a565b6040516105ad9b9a9998979695949392919061230d565b60405180910390f35b3480156105c257600080fd5b506105cb6114ad565b6040516105d891906118a4565b60405180910390f35b3480156105ed57600080fd5b506105f66114b3565b005b34801561060457600080fd5b5061061f600480360381019061061a91906117e2565b611515565b005b34801561062d57600080fd5b5061063661168f565b60405161064391906118a4565b60405180910390f35b6009818154811061065c57600080fd5b90600052602060002090600d02016000915090508060000160009054906101000a900473ffffffffffffffffffffffffffffffffffffffff16908060020154908060030154908060040154905084565b60055481565b7f000000000000000000000000000000000000000000000000000000000000000081565b600881815481106106e657600080fd5b9060005260206000209060020201600091509050806000018054610709906123f5565b80601f0160208091040260200160405190810160405280929190818152602001828054610735906123f5565b80156107825780601f1061075757610100808354040283529160200191610782565b820191906000526020600020905b81548152906001019060200180831161076557829003601f168201915b5050505050905081565b60008054906101000a900473ffffffffffffffffffffffffffffffffffffffff1673ffffffffffffffffffffffffffffffffffffffff163373ffffffffffffffffffffffffffffffffffffffff161461081a576040517f08c379a000000000000000000000000000000000000000000000000000000000815260040161081190612472565b60405180910390fd5b6000471161085d576040517f08c379a0000000000000000000000000000000000000000000000000000000008152600401610854906124de565b60405180910390fd5b3073ffffffffffffffffffffffffffffffffffffffff1663bef4876b6040518163ffffffff1660e01b8152600401602060405180830381865afa1580156108a8573d6000803e3d6000fd5b505050506040513d601f19601f820116820180604052508101906108cc919061252a565b5060008054906101000a900473ffffffffffffffffffffffffffffffffffffffff1673ffffffffffffffffffffffffffffffffffffffff166108fc479081150290604051600060405180830381858888f19350505050158015610933573d6000803e3d6000fd5b50565b600160009054906101000a900473ffffffffffffffffffffffffffffffffffffffff1681565b60028054610969906123f5565b80601f0160208091040260200160405190810160405280929190818152602001828054610995906123f5565b80156109e25780601f106109b7576101008083540402835291602001916109e2565b820191906000526020600020905b8154815290600101906020018083116109c557829003601f168201915b505050505081565b60088054905081602001515114610a36576040517f08c379a0000000000000000000000000000000000000000000000000000000008152600401610a2d906125c9565b60405180910390fd5b60045460065410610a7c576040517f08c379a0000000000000000000000000000000000000000000000000000000008152600401610a7390612635565b60405180910390fd5b600c544210610ac0576040517f08c379a0000000000000000000000000000000000000000000000000000000008152600401610ab7906126a1565b60405180910390fd5b60003073ffffffffffffffffffffffffffffffffffffffff1663b2dc2f4583602001516040518263ffffffff1660e01b8152600401610aff9190612730565b602060405180830381865afa158015610b1c573d6000803e3d6000fd5b505050506040513d601f19601f82011682018060405250810190610b409190612767565b905060006040518060c00160405280846040015181526020018460600151815260200184608001518152602001838152602001600e5481526020018460a001518152509050600d60009054906101000a900473ffffffffffffffffffffffffffffffffffffffff1673ffffffffffffffffffffffffffffffffffffffff1663d0d898dd600e54836040518363ffffffff1660e01b8152600401610be4929190612810565b600060405180830381600087803b158015610bfe57600080fd5b505af1158015610c12573d6000803e3d6000fd5b5050505060005b600880549050811015610cbe5760088181548110610c3a57610c3961283a565b5b90600052602060002090600202016001018054905084602001518281518110610c6657610c6561283a565b5b602002602001015160ff1610610cb1576040517f08c379a0000000000000000000000000000000000000000000000000000000008152600401610ca8906128b5565b60405180910390fd5b8080600101915050610c19565b5060098390806001815401808255809150506001900390600052602060002090600d020160009091909190915060008201518160000160006101000a81548173ffffffffffffffffffffffffffffffffffffffff021916908373ffffffffffffffffffffffffffffffffffffffff1602179055506020820151816001019080519060200190610d4e929190611694565b5060408201518160020155606082015181600301556080820151816004015560a082015181600501906008610d8492919061173b565b5050503373ffffffffffffffffffffffffffffffffffffffff166108fc6005549081150290604051600060405180830381858888f19350505050158015610dcf573d6000803e3d6000fd5b5060066000815480929190610de390612904565b9190505550505050565b6000600654600454610dff919061294c565b905090565b60045481565b60038054610e17906123f5565b80601f0160208091040260200160405190810160405280929190818152602001828054610e43906123f5565b8015610e905780601f10610e6557610100808354040283529160200191610e90565b820191906000526020600020905b815481529060010190602001808311610e7357829003601f168201915b505050505081565b600d60009054906101000a900473ffffffffffffffffffffffffffffffffffffffff1681565b60008054906101000a900473ffffffffffffffffffffffffffffffffffffffff1681565b60606008805480602002602001604051908101604052809291908181526020016000905b828210156110a35783829060005260206000209060020201604051806040016040529081600082018054610f39906123f5565b80601f0160208091040260200160405190810160405280929190818152602001828054610f65906123f5565b8015610fb25780601f10610f8757610100808354040283529160200191610fb2565b820191906000526020600020905b815481529060010190602001808311610f9557829003601f168201915b5050505050815260200160018201805480602002602001604051908101604052809291908181526020016000905b8282101561108c578382906000526020600020018054610fff906123f5565b80601f016020809104026020016040519081016040528092919081815260200182805461102b906123f5565b80156110785780601f1061104d57610100808354040283529160200191611078565b820191906000526020600020905b81548152906001019060200180831161105b57829003601f168201915b505050505081526020019060010190610fe0565b505050508152505081526020019060010190610f06565b50505050905090565b600e5481565b60065481565b60006020825111156110ff576040517f08c379a00000000000000000000000000000000000000000000000000000000081526004016110f6906129cc565b60405180910390fd5b6000805b83518110156111565780601f611119919061294c565b600861112591906129ec565b8482815181106111385761113761283a565b5b602002602001015160ff16901b821791508080600101915050611103565b5080915050919050565b600b5481565b600181565b60075481565b600a60009054906101000a900460ff1681565b60606009805480602002602001604051908101604052809291908181526020016000905b8282101561131157838290600052602060002090600d02016040518060c00160405290816000820160009054906101000a900473ffffffffffffffffffffffffffffffffffffffff1673ffffffffffffffffffffffffffffffffffffffff1673ffffffffffffffffffffffffffffffffffffffff1681526020016001820180548060200260200160405190810160405280929190818152602001828054801561129657602002820191906000526020600020906000905b82829054906101000a900460ff1660ff168152602001906001019060208260000104928301926001038202915080841161125f5790505b50505050508152602001600282015481526020016003820154815260200160048201548152602001600582016008806020026040519081016040528092919082600880156112f9576020028201915b8154815260200190600101908083116112e5575b505050505081525050815260200190600101906111a8565b50505050905090565b60608060008060008060008060008060006002600360008054906101000a900473ffffffffffffffffffffffffffffffffffffffff16600554600454600654600b54600c54600180600a60009054906101000a900460ff168a805461137e906123f5565b80601f01602080910402602001604051908101604052809291908181526020018280546113aa906123f5565b80156113f75780601f106113cc576101008083540402835291602001916113f7565b820191906000526020600020905b8154815290600101906020018083116113da57829003601f168201915b50505050509a5089805461140a906123f5565b80601f0160208091040260200160405190810160405280929190818152602001828054611436906123f5565b80156114835780601f1061145857610100808354040283529160200191611483565b820191906000526020600020905b81548152906001019060200180831161146657829003601f168201915b505050505099509a509a509a509a509a509a509a509a509a509a509a50909192939495969798999a565b600c5481565b600c544210156114f8576040517f08c379a00000000000000000000000000000000000000000000000000000000081526004016114ef90612a7a565b60405180910390fd5b6001600a60006101000a81548160ff021916908315150217905550565b600160009054906101000a900473ffffffffffffffffffffffffffffffffffffffff1673ffffffffffffffffffffffffffffffffffffffff163373ffffffffffffffffffffffffffffffffffffffff16146115a5576040517f08c379a000000000000000000000000000000000000000000000000000000000815260040161159c90612ae6565b60405180910390fd5b60001515600a60009054906101000a900460ff161515146115fb576040517f08c379a00000000000000000000000000000000000000000000000000000000081526004016115f2906126a1565b60405180910390fd5b600d60009054906101000a900473ffffffffffffffffffffffffffffffffffffffff1673ffffffffffffffffffffffffffffffffffffffff16631783efc3600e54836040518363ffffffff1660e01b815260040161165a929190612b06565b600060405180830381600087803b15801561167457600080fd5b505af1158015611688573d6000803e3d6000fd5b5050505050565b600181565b82805482825590600052602060002090601f0160209004810192821561172a5791602002820160005b838211156116fb57835183826101000a81548160ff021916908360ff16021790555092602001926001016020816000010492830192600103026116bd565b80156117285782816101000a81549060ff02191690556001016020816000010492830192600103026116fb565b505b509050611737919061177b565b5090565b826008810192821561176a579160200282015b8281111561176957825182559160200191906001019061174e565b5b509050611777919061177b565b5090565b5b8082111561179457600081600090555060010161177c565b5090565b6000604051905090565b600080fd5b600080fd5b6000819050919050565b6117bf816117ac565b81146117ca57600080fd5b50565b6000813590506117dc816117b6565b92915050565b6000602082840312156117f8576117f76117a2565b5b6000611806848285016117cd565b91505092915050565b600073ffffffffffffffffffffffffffffffffffffffff82169050919050565b600061183a8261180f565b9050919050565b61184a8161182f565b82525050565b611859816117ac565b82525050565b60006080820190506118746000830187611841565b6118816020830186611850565b61188e6040830185611850565b61189b6060830184611850565b95945050505050565b60006020820190506118b96000830184611850565b92915050565b60006020820190506118d46000830184611841565b92915050565b600081519050919050565b600082825260208201905092915050565b60005b838110156119145780820151818401526020810190506118f9565b60008484015250505050565b6000601f19601f8301169050919050565b600061193c826118da565b61194681856118e5565b93506119568185602086016118f6565b61195f81611920565b840191505092915050565b600060208201905081810360008301526119848184611931565b905092915050565b600080fd5b7f4e487b7100000000000000000000000000000000000000000000000000000000600052604160045260246000fd5b6119c982611920565b810181811067ffffffffffffffff821117156119e8576119e7611991565b5b80604052505050565b60006119fb611798565b9050611a0782826119c0565b919050565b600080fd5b611a1a8161182f565b8114611a2557600080fd5b50565b600081359050611a3781611a11565b92915050565b600080fd5b600067ffffffffffffffff821115611a5d57611a5c611991565b5b602082029050602081019050919050565b600080fd5b600060ff82169050919050565b611a8981611a73565b8114611a9457600080fd5b50565b600081359050611aa681611a80565b92915050565b6000611abf611aba84611a42565b6119f1565b90508083825260208201905060208402830185811115611ae257611ae1611a6e565b5b835b81811015611b0b5780611af78882611a97565b845260208401935050602081019050611ae4565b5050509392505050565b600082601f830112611b2a57611b29611a3d565b5b8135611b3a848260208601611aac565b91505092915050565b600067ffffffffffffffff821115611b5e57611b5d611991565b5b602082029050919050565b6000611b7c611b7784611b43565b6119f1565b90508060208402830185811115611b9657611b95611a6e565b5b835b81811015611bbf5780611bab88826117cd565b845260208401935050602081019050611b98565b5050509392505050565b600082601f830112611bde57611bdd611a3d565b5b6008611beb848285611b69565b91505092915050565b60006101a08284031215611c0b57611c0a61198c565b5b611c1560c06119f1565b90506000611c2584828501611a28565b600083015250602082013567ffffffffffffffff811115611c4957611c48611a0c565b5b611c5584828501611b15565b6020830152506040611c69848285016117cd565b6040830152506060611c7d848285016117cd565b6060830152506080611c91848285016117cd565b60808301525060a0611ca584828501611bc9565b60a08301525092915050565b600060208284031215611cc757611cc66117a2565b5b600082013567ffffffffffffffff811115611ce557611ce46117a7565b5b611cf184828501611bf4565b91505092915050565b6000819050919050565b6000611d1f611d1a611d158461180f565b611cfa565b61180f565b9050919050565b6000611d3182611d04565b9050919050565b6000611d4382611d26565b9050919050565b611d5381611d38565b82525050565b6000602082019050611d6e6000830184611d4a565b92915050565b600081519050919050565b600082825260208201905092915050565b6000819050602082019050919050565b600082825260208201905092915050565b6000611dbc826118da565b611dc68185611da0565b9350611dd68185602086016118f6565b611ddf81611920565b840191505092915050565b600081519050919050565b600082825260208201905092915050565b6000819050602082019050919050565b6000611e228383611db1565b905092915050565b6000602082019050919050565b6000611e4282611dea565b611e4c8185611df5565b935083602082028501611e5e85611e06565b8060005b85811015611e9a5784840389528151611e7b8582611e16565b9450611e8683611e2a565b925060208a01995050600181019050611e62565b50829750879550505050505092915050565b60006040830160008301518482036000860152611ec98282611db1565b91505060208301518482036020860152611ee38282611e37565b9150508091505092915050565b6000611efc8383611eac565b905092915050565b6000602082019050919050565b6000611f1c82611d74565b611f268185611d7f565b935083602082028501611f3885611d90565b8060005b85811015611f745784840389528151611f558582611ef0565b9450611f6083611f04565b925060208a01995050600181019050611f3c565b50829750879550505050505092915050565b60006020820190508181036000830152611fa08184611f11565b905092915050565b600060208284031215611fbe57611fbd6117a2565b5b600082013567ffffffffffffffff811115611fdc57611fdb6117a7565b5b611fe884828501611b15565b91505092915050565b60008115159050919050565b61200681611ff1565b82525050565b60006020820190506120216000830184611ffd565b92915050565b600081519050919050565b600082825260208201905092915050565b6000819050602082019050919050565b61205c8161182f565b82525050565b600081519050919050565b600082825260208201905092915050565b6000819050602082019050919050565b61209781611a73565b82525050565b60006120a9838361208e565b60208301905092915050565b6000602082019050919050565b60006120cd82612062565b6120d7818561206d565b93506120e28361207e565b8060005b838110156121135781516120fa888261209d565b9750612105836120b5565b9250506001810190506120e6565b5085935050505092915050565b612129816117ac565b82525050565b600060089050919050565b600081905092915050565b6000819050919050565b600061215b8383612120565b60208301905092915050565b6000602082019050919050565b61217d8161212f565b612187818461213a565b925061219282612145565b8060005b838110156121c35781516121aa878261214f565b96506121b583612167565b925050600181019050612196565b505050505050565b60006101a0830160008301516121e46000860182612053565b50602083015184820360208601526121fc82826120c2565b91505060408301516122116040860182612120565b5060608301516122246060860182612120565b5060808301516122376080860182612120565b5060a083015161224a60a0860182612174565b508091505092915050565b600061226183836121cb565b905092915050565b6000602082019050919050565b600061228182612027565b61228b8185612032565b93508360208202850161229d85612043565b8060005b858110156122d957848403895281516122ba8582612255565b94506122c583612269565b925060208a019950506001810190506122a1565b50829750879550505050505092915050565b600060208201905081810360008301526123058184612276565b905092915050565b6000610160820190508181036000830152612328818e611931565b9050818103602083015261233c818d611931565b905061234b604083018c611841565b612358606083018b611850565b612365608083018a611850565b61237260a0830189611850565b61237f60c0830188611850565b61238c60e0830187611850565b61239a610100830186611850565b6123a8610120830185611850565b6123b6610140830184611ffd565b9c9b505050505050505050505050565b7f4e487b7100000000000000000000000000000000000000000000000000000000600052602260045260246000fd5b6000600282049050600182168061240d57607f821691505b6020821081036124205761241f6123c6565b5b50919050565b7f4f6e6c79206f776e65722063616e207769746864726177000000000000000000600082015250565b600061245c6017836118e5565b915061246782612426565b602082019050919050565b6000602082019050818103600083015261248b8161244f565b9050919050565b7f4e6f2062616c616e636520746f20776974686472617700000000000000000000600082015250565b60006124c86016836118e5565b91506124d382612492565b602082019050919050565b600060208201905081810360008301526124f7816124bb565b9050919050565b61250781611ff1565b811461251257600080fd5b50565b600081519050612524816124fe565b92915050565b6000602082840312156125405761253f6117a2565b5b600061254e84828501612515565b91505092915050565b7f416e73776572206c656e677468206d757374206d61746368207175657374696f60008201527f6e206c656e677468000000000000000000000000000000000000000000000000602082015250565b60006125b36028836118e5565b91506125be82612557565b604082019050919050565b600060208201905081810360008301526125e2816125a6565b9050919050565b7f53757276657920697320616c72656164792066756c6c00000000000000000000600082015250565b600061261f6016836118e5565b915061262a826125e9565b602082019050919050565b6000602082019050818103600083015261264e81612612565b9050919050565b7f5375727665792069732066696e69736865640000000000000000000000000000600082015250565b600061268b6012836118e5565b915061269682612655565b602082019050919050565b600060208201905081810360008301526126ba8161267e565b9050919050565b600082825260208201905092915050565b60006126dd82612062565b6126e781856126c1565b93506126f28361207e565b8060005b8381101561272357815161270a888261209d565b9750612715836120b5565b9250506001810190506126f6565b5085935050505092915050565b6000602082019050818103600083015261274a81846126d2565b905092915050565b600081519050612761816117b6565b92915050565b60006020828403121561277d5761277c6117a2565b5b600061278b84828501612752565b91505092915050565b6101a0820160008201516127ab6000850182612120565b5060208201516127be6020850182612120565b5060408201516127d16040850182612120565b5060608201516127e46060850182612120565b5060808201516127f76080850182612120565b5060a082015161280a60a0850182612174565b50505050565b60006101c0820190506128266000830185611850565b6128336020830184612794565b9392505050565b7f4e487b7100000000000000000000000000000000000000000000000000000000600052603260045260246000fd5b7f416e73776572206f7574206f6620626f756e6473000000000000000000000000600082015250565b600061289f6014836118e5565b91506128aa82612869565b602082019050919050565b600060208201905081810360008301526128ce81612892565b9050919050565b7f4e487b7100000000000000000000000000000000000000000000000000000000600052601160045260246000fd5b600061290f826117ac565b91507fffffffffffffffffffffffffffffffffffffffffffffffffffffffffffffffff8203612941576129406128d5565b5b600182019050919050565b6000612957826117ac565b9150612962836117ac565b925082820390508181111561297a576129796128d5565b5b92915050565b7f75696e74385b5d20657863656564732033322062797465730000000000000000600082015250565b60006129b66018836118e5565b91506129c182612980565b602082019050919050565b600060208201905081810360008301526129e5816129a9565b9050919050565b60006129f7826117ac565b9150612a02836117ac565b9250828202612a10816117ac565b91508282048414831517612a2757612a266128d5565b5b5092915050565b7f537572766579206973206e6f742066696e697368656420796574000000000000600082015250565b6000612a64601a836118e5565b9150612a6f82612a2e565b602082019050919050565b60006020820190508181036000830152612a9381612a57565b9050919050565b7f4163636573732064656e6965643a204e6f7420746865206d616e616765720000600082015250565b6000612ad0601e836118e5565b9150612adb82612a9a565b602082019050919050565b60006020820190508181036000830152612aff81612ac3565b9050919050565b6000604082019050612b1b6000830185611850565b612b286020830184611850565b939250505056fea26469706673582212209c480afca7622760f9a848f7dc6ceecdec48734265d42180a56976c61e57a37064736f6c634300081b0033a26469706673582212208f39057243cf358683b234433f8c5a6f2c014bc2b7aa3648ad88c434c8cfe3c664736f6c634300081b0033",
  "linkReferences": {},
  "deployedLinkReferences": {}
}