{
  "_format": "hh-sol-artifact-1",
  "contractName": "SurveyV1",
  "sourceName": "contracts/SurveyV1.sol",
  "abi": [
    {
      "inputs": [
        {
          "internalType": "string",
          "name": "_title",
          "type": "string"
        },
        {
          "internalType": "string",
          "name": "_description",
          "type": "string"
        },
        {
          "components": [
            {
              "internalType": "string",
              "name": "question",
              "type": "string"
            },
            {
              "internalType": "string[]",
              "name": "options",
              "type": "string[]"
            }
          ],
          "internalType": "struct SurveyV1.Question[]",
          "name": "_questions",
          "type": "tuple[]"
        },
        {
          "internalType": "uint256",
          "name": "_targetNumber",
          "type": "uint256"
        },
        {
          "internalType": "uint256",
          "name": "_lockedUntil",
          "type": "uint256"
        },
        {
          "internalType": "uint256",
          "name": "_burnRate",
          "type": "uint256"
        },
        {
          "internalType": "contract ISemaphore",
          "name": "_semaphore",
          "type": "address"
        },
        {
          "internalType": "address",
          "name": "_manager",
          "type": "address"
        },
        {
          "internalType": "uint256",
          "name": "_groupId",
          "type": "uint256"
        }
      ],
      "stateMutability": "payable",
      "type": "constructor"
    },
    {
      "anonymous": false,
      "inputs": [
        {
          "indexed": true,
          "internalType": "address",
          "name": "respondent",
          "type": "address"
        },
        {
          "indexed": true,
          "internalType": "uint256",
          "name": "surveyId",
          "type": "uint256"
        },
        {
          "indexed": false,
          "internalType": "uint8[]",
          "name": "answers",
          "type": "uint8[]"
        }
      ],
      "name": "AnswerSubmitted",
      "type": "event"
    },
    {
      "anonymous": false,
      "inputs": [
        {
          "indexed": true,
          "internalType": "uint256",
          "name": "surveyId",
          "type": "uint256"
        }
      ],
      "name": "SurveyFinished",
      "type": "event"
    },
    {
      "inputs": [],
      "name": "SURVEY_FACTORY",
      "outputs": [
        {
          "internalType": "address",
          "name": "",
          "type": "address"
        }
      ],
      "stateMutability": "view",
      "type": "function"
    },
    {
      "inputs": [],
      "name": "TYPE",
      "outputs": [
        {
          "internalType": "uint256",
          "name": "",
          "type": "uint256"
        }
      ],
      "stateMutability": "view",
      "type": "function"
    },
    {
      "inputs": [],
      "name": "VERSION",
      "outputs": [
        {
          "internalType": "uint256",
          "name": "",
          "type": "uint256"
        }
      ],
      "stateMutability": "view",
      "type": "function"
    },
    {
      "inputs": [
        {
          "internalType": "uint256",
          "name": "",
          "type": "uint256"
        }
      ],
      "name": "answers",
      "outputs": [
        {
          "internalType": "address",
          "name": "respondent",
          "type": "address"
        },
        {
          "internalType": "uint256",
          "name": "merkleTreeDepth",
          "type": "uint256"
        },
        {
          "internalType": "uint256",
          "name": "merkleTreeRoot",
          "type": "uint256"
        },
        {
          "internalType": "uint256",
          "name": "nullifier",
          "type": "uint256"
        }
      ],
      "stateMutability": "view",
      "type": "function"
    },
    {
      "inputs": [],
      "name": "burnRate",
      "outputs": [
        {
          "internalType": "uint256",
          "name": "",
          "type": "uint256"
        }
      ],
      "stateMutability": "view",
      "type": "function"
    },
    {
      "inputs": [],
      "name": "description",
      "outputs": [
        {
          "internalType": "string",
          "name": "",
          "type": "string"
        }
      ],
      "stateMutability": "view",
      "type": "function"
    },
    {
      "inputs": [],
      "name": "finish",
      "outputs": [],
      "stateMutability": "nonpayable",
      "type": "function"
    },
    {
      "inputs": [],
      "name": "finished",
      "outputs": [
        {
          "internalType": "bool",
          "name": "",
          "type": "bool"
        }
      ],
      "stateMutability": "view",
      "type": "function"
    },
    {
      "inputs": [],
      "name": "getAnswers",
      "outputs": [
        {
          "components": [
            {
              "internalType": "address",
              "name": "respondent",
              "type": "address"
            },
            {
              "internalType": "uint8[]",
              "name": "answers",
              "type": "uint8[]"
            },
            {
              "internalType": "uint256",
              "name": "merkleTreeDepth",
              "type": "uint256"
            },
            {
              "internalType": "uint256",
              "name": "merkleTreeRoot",
              "type": "uint256"
            },
            {
              "internalType": "uint256",
              "name": "nullifier",
              "type": "uint256"
            },
            {
              "internalType": "uint256[8]",
              "name": "points",
              "type": "uint256[8]"
            }
          ],
          "internalType": "struct SurveyV1.Answer[]",
          "name": "",
          "type": "tuple[]"
        }
      ],
      "stateMutability": "view",
      "type": "function"
    },
    {
      "inputs": [],
      "name": "getQuestions",
      "outputs": [
        {
          "components": [
            {
              "internalType": "string",
              "name": "question",
              "type": "string"
            },
            {
              "internalType": "string[]",
              "name": "options",
              "type": "string[]"
            }
          ],
          "internalType": "struct SurveyV1.Question[]",
          "name": "",
          "type": "tuple[]"
        }
      ],
      "stateMutability": "view",
      "type": "function"
    },
    {
      "inputs": [],
      "name": "groupId",
      "outputs": [
        {
          "internalType": "uint256",
          "name": "",
          "type": "uint256"
        }
      ],
      "stateMutability": "view",
      "type": "function"
    },
    {
      "inputs": [
        {
          "internalType": "uint256",
          "name": "identityCommitment",
          "type": "uint256"
        }
      ],
      "name": "joinGroup",
      "outputs": [],
      "stateMutability": "nonpayable",
      "type": "function"
    },
    {
      "inputs": [],
      "name": "lockedUntil",
      "outputs": [
        {
          "internalType": "uint256",
          "name": "",
          "type": "uint256"
        }
      ],
      "stateMutability": "view",
      "type": "function"
    },
    {
      "inputs": [],
      "name": "manager",
      "outputs": [
        {
          "internalType": "address",
          "name": "",
          "type": "address"
        }
      ],
      "stateMutability": "view",
      "type": "function"
    },
    {
      "inputs": [],
      "name": "owner",
      "outputs": [
        {
          "internalType": "address",
          "name": "",
          "type": "address"
        }
      ],
      "stateMutability": "view",
      "type": "function"
    },
    {
      "inputs": [
        {
          "internalType": "uint256",
          "name": "",
          "type": "uint256"
        }
      ],
      "name": "questions",
      "outputs": [
        {
          "internalType": "string",
          "name": "question",
          "type": "string"
        }
      ],
      "stateMutability": "view",
      "type": "function"
    },
    {
      "inputs": [],
      "name": "remainingSurveys",
      "outputs": [
        {
          "internalType": "uint256",
          "name": "",
          "type": "uint256"
        }
      ],
      "stateMutability": "view",
      "type": "function"
    },
    {
      "inputs": [],
      "name": "reward",
      "outputs": [
        {
          "internalType": "uint256",
          "name": "",
          "type": "uint256"
        }
      ],
      "stateMutability": "view",
      "type": "function"
    },
    {
      "inputs": [],
      "name": "semaphore",
      "outputs": [
        {
          "internalType": "contract ISemaphore",
          "name": "",
          "type": "address"
        }
      ],
      "stateMutability": "view",
      "type": "function"
    },
    {
      "inputs": [
        {
          "components": [
            {
              "internalType": "address",
              "name": "respondent",
              "type": "address"
            },
            {
              "internalType": "uint8[]",
              "name": "answers",
              "type": "uint8[]"
            },
            {
              "internalType": "uint256",
              "name": "merkleTreeDepth",
              "type": "uint256"
            },
            {
              "internalType": "uint256",
              "name": "merkleTreeRoot",
              "type": "uint256"
            },
            {
              "internalType": "uint256",
              "name": "nullifier",
              "type": "uint256"
            },
            {
              "internalType": "uint256[8]",
              "name": "points",
              "type": "uint256[8]"
            }
          ],
          "internalType": "struct SurveyV1.Answer",
          "name": "_answer",
          "type": "tuple"
        }
      ],
      "name": "submitAnswer",
      "outputs": [],
      "stateMutability": "nonpayable",
      "type": "function"
    },
    {
      "inputs": [],
      "name": "surveyInfo",
      "outputs": [
        {
          "internalType": "string",
          "name": "",
          "type": "string"
        },
        {
          "internalType": "string",
          "name": "",
          "type": "string"
        },
        {
          "internalType": "address",
          "name": "",
          "type": "address"
        },
        {
          "internalType": "uint256",
          "name": "",
          "type": "uint256"
        },
        {
          "internalType": "uint256",
          "name": "",
          "type": "uint256"
        },
        {
          "internalType": "uint256",
          "name": "",
          "type": "uint256"
        },
        {
          "internalType": "uint256",
          "name": "",
          "type": "uint256"
        },
        {
          "internalType": "uint256",
          "name": "",
          "type": "uint256"
        },
        {
          "internalType": "uint256",
          "name": "",
          "type": "uint256"
        },
        {
          "internalType": "uint256",
          "name": "",
          "type": "uint256"
        },
        {
          "internalType": "bool",
          "name": "",
          "type": "bool"
        }
      ],
      "stateMutability": "view",
      "type": "function"
    },
    {
      "inputs": [],
      "name": "surveyNumber",
      "outputs": [
        {
          "internalType": "uint256",
          "name": "",
          "type": "uint256"
        }
      ],
      "stateMutability": "view",
      "type": "function"
    },
    {
      "inputs": [],
      "name": "targetNumber",
      "outputs": [
        {
          "internalType": "uint256",
          "name": "",
          "type": "uint256"
        }
      ],
      "stateMutability": "view",
      "type": "function"
    },
    {
      "inputs": [],
      "name": "timestamp",
      "outputs": [
        {
          "internalType": "uint256",
          "name": "",
          "type": "uint256"
        }
      ],
      "stateMutability": "view",
      "type": "function"
    },
    {
      "inputs": [],
      "name": "title",
      "outputs": [
        {
          "internalType": "string",
          "name": "",
          "type": "string"
        }
      ],
      "stateMutability": "view",
      "type": "function"
    },
    {
      "inputs": [
        {
          "internalType": "uint8[]",
          "name": "data",
          "type": "uint8[]"
        }
      ],
      "name": "uint8ArrayToUint256",
      "outputs": [
        {
          "internalType": "uint256",
          "name": "",
          "type": "uint256"
        }
      ],
      "stateMutability": "pure",
      "type": "function"
    },
    {
      "inputs": [],
      "name": "withdraw",
      "outputs": [],
      "stateMutability": "nonpayable",
      "type": "function"
    },
    {
      "stateMutability": "payable",
      "type": "receive"
    }
  ],
  "bytecode": "0x60a06040526000600a60006101000a81548160ff021916908315150217905550604051613a5d380380613a5d8339818101604052810190610040919061096e565b3373ffffffffffffffffffffffffffffffffffffffff1660808173ffffffffffffffffffffffffffffffffffffffff1681525050600060068190555060005b875181101561022957600088828151811061009d5761009c610a8c565b5b6020026020010151602001515167ffffffffffffffff8111156100c3576100c26104fd565b5b6040519080825280602002602001820160405280156100f657816020015b60608152602001906001900390816100e15790505b50905060005b89838151811061010f5761010e610a8c565b5b602002602001015160200151518110156101875789838151811061013657610135610a8c565b5b602002602001015160200151818151811061015457610153610a8c565b5b602002602001015182828151811061016f5761016e610a8c565b5b602002602001018190525080806001019150506100fc565b50600860405180604001604052808b85815181106101a8576101a7610a8c565b5b602002602001015160000151815260200183815250908060018154018082558091505060019003906000526020600020906002020160009091909190915060008201518160000190816101fb9190610cd2565b5060208201518160010190805190602001906102189291906103f4565b50505050808060010191505061007f565b5088600290816102399190610cd2565b5087600390816102499190610cd2565b50836007819055508560048190555042600b81905550620151808561026e9190610dd3565b600b5461027b9190610e15565b600c81905550336000806101000a81548173ffffffffffffffffffffffffffffffffffffffff021916908373ffffffffffffffffffffffffffffffffffffffff16021790555082600d60006101000a81548173ffffffffffffffffffffffffffffffffffffffff021916908373ffffffffffffffffffffffffffffffffffffffff16021790555080600e8190555081600160006101000a81548173ffffffffffffffffffffffffffffffffffffffff021916908373ffffffffffffffffffffffffffffffffffffffff16021790555061dead73ffffffffffffffffffffffffffffffffffffffff166108fc612710600754346103779190610dd3565b6103819190610e78565b9081150290604051600060405180830381858888f193505050501580156103ac573d6000803e3d6000fd5b50600454612710600754346103c19190610dd3565b6103cb9190610e78565b346103d69190610ea9565b6103e09190610e78565b600581905550505050505050505050610edd565b82805482825590600052602060002090810192821561043c579160200282015b8281111561043b57825182908161042b9190610cd2565b5091602001919060010190610414565b5b509050610449919061044d565b5090565b5b8082111561046d57600081816104649190610471565b5060010161044e565b5090565b50805461047d90610af5565b6000825580601f1061048f57506104ae565b601f0160209004906000526020600020908101906104ad91906104b1565b5b50565b5b808211156104ca5760008160009055506001016104b2565b5090565b6000604051905090565b600080fd5b600080fd5b600080fd5b600080fd5b6000601f19601f8301169050919050565b7f4e487b7100000000000000000000000000000000000000000000000000000000600052604160045260246000fd5b610535826104ec565b810181811067ffffffffffffffff82111715610554576105536104fd565b5b80604052505050565b60006105676104ce565b9050610573828261052c565b919050565b600067ffffffffffffffff821115610593576105926104fd565b5b61059c826104ec565b9050602081019050919050565b60005b838110156105c75780820151818401526020810190506105ac565b60008484015250505050565b60006105e66105e184610578565b61055d565b905082815260208101848484011115610602576106016104e7565b5b61060d8482856105a9565b509392505050565b600082601f83011261062a576106296104e2565b5b815161063a8482602086016105d3565b91505092915050565b600067ffffffffffffffff82111561065e5761065d6104fd565b5b602082029050602081019050919050565b600080fd5b600080fd5b600080fd5b600067ffffffffffffffff821115610699576106986104fd565b5b602082029050602081019050919050565b60006106bd6106b88461067e565b61055d565b905080838252602082019050602084028301858111156106e0576106df61066f565b5b835b8181101561072757805167ffffffffffffffff811115610705576107046104e2565b5b8086016107128982610615565b855260208501945050506020810190506106e2565b5050509392505050565b600082601f830112610746576107456104e2565b5b81516107568482602086016106aa565b91505092915050565b60006040828403121561077557610774610674565b5b61077f604061055d565b9050600082015167ffffffffffffffff81111561079f5761079e610679565b5b6107ab84828501610615565b600083015250602082015167ffffffffffffffff8111156107cf576107ce610679565b5b6107db84828501610731565b60208301525092915050565b60006107fa6107f584610643565b61055d565b9050808382526020820190506020840283018581111561081d5761081c61066f565b5b835b8181101561086457805167ffffffffffffffff811115610842576108416104e2565b5b80860161084f898261075f565b8552602085019450505060208101905061081f565b5050509392505050565b600082601f830112610883576108826104e2565b5b81516108938482602086016107e7565b91505092915050565b6000819050919050565b6108af8161089c565b81146108ba57600080fd5b50565b6000815190506108cc816108a6565b92915050565b600073ffffffffffffffffffffffffffffffffffffffff82169050919050565b60006108fd826108d2565b9050919050565b600061090f826108f2565b9050919050565b61091f81610904565b811461092a57600080fd5b50565b60008151905061093c81610916565b92915050565b61094b816108f2565b811461095657600080fd5b50565b60008151905061096881610942565b92915050565b60008060008060008060008060006101208a8c031215610991576109906104d8565b5b60008a015167ffffffffffffffff8111156109af576109ae6104dd565b5b6109bb8c828d01610615565b99505060208a015167ffffffffffffffff8111156109dc576109db6104dd565b5b6109e88c828d01610615565b98505060408a015167ffffffffffffffff811115610a0957610a086104dd565b5b610a158c828d0161086e565b9750506060610a268c828d016108bd565b9650506080610a378c828d016108bd565b95505060a0610a488c828d016108bd565b94505060c0610a598c828d0161092d565b93505060e0610a6a8c828d01610959565b925050610100610a7c8c828d016108bd565b9150509295985092959850929598565b7f4e487b7100000000000000000000000000000000000000000000000000000000600052603260045260246000fd5b600081519050919050565b7f4e487b7100000000000000000000000000000000000000000000000000000000600052602260045260246000fd5b60006002820490506001821680610b0d57607f821691505b602082108103610b2057610b1f610ac6565b5b50919050565b60008190508160005260206000209050919050565b60006020601f8301049050919050565b600082821b905092915050565b600060088302610b887fffffffffffffffffffffffffffffffffffffffffffffffffffffffffffffffff82610b4b565b610b928683610b4b565b95508019841693508086168417925050509392505050565b6000819050919050565b6000610bcf610bca610bc58461089c565b610baa565b61089c565b9050919050565b6000819050919050565b610be983610bb4565b610bfd610bf582610bd6565b848454610b58565b825550505050565b600090565b610c12610c05565b610c1d818484610be0565b505050565b5b81811015610c4157610c36600082610c0a565b600181019050610c23565b5050565b601f821115610c8657610c5781610b26565b610c6084610b3b565b81016020851015610c6f578190505b610c83610c7b85610b3b565b830182610c22565b50505b505050565b600082821c905092915050565b6000610ca960001984600802610c8b565b1980831691505092915050565b6000610cc28383610c98565b9150826002028217905092915050565b610cdb82610abb565b67ffffffffffffffff811115610cf457610cf36104fd565b5b610cfe8254610af5565b610d09828285610c45565b600060209050601f831160018114610d3c5760008415610d2a578287015190505b610d348582610cb6565b865550610d9c565b601f198416610d4a86610b26565b60005b82811015610d7257848901518255600182019150602085019450602081019050610d4d565b86831015610d8f5784890151610d8b601f891682610c98565b8355505b6001600288020188555050505b505050505050565b7f4e487b7100000000000000000000000000000000000000000000000000000000600052601160045260246000fd5b6000610dde8261089c565b9150610de98361089c565b9250828202610df78161089c565b91508282048414831517610e0e57610e0d610da4565b5b5092915050565b6000610e208261089c565b9150610e2b8361089c565b9250828201905080821115610e4357610e42610da4565b5b92915050565b7f4e487b7100000000000000000000000000000000000000000000000000000000600052601260045260246000fd5b6000610e838261089c565b9150610e8e8361089c565b925082610e9e57610e9d610e49565b5b828204905092915050565b6000610eb48261089c565b9150610ebf8361089c565b9250828203905081811115610ed757610ed6610da4565b5b92915050565b608051612b65610ef860003960006106b40152612b656000f3fe6080604052600436106101a05760003560e01c806397221ab7116100ec578063bef4876b1161008a578063ce0617ec11610064578063ce0617ec146105b6578063d56b2889146105e1578063eed02e4b146105f8578063ffa1ad7414610621576101a7565b8063bef4876b1461052b578063c793fcf914610556578063c84862d414610581576101a7565b8063b2dc2f45116100c6578063b2dc2f451461046d578063b80777ea146104aa578063bb24fe8a146104d5578063bed9985014610500576101a7565b806397221ab7146103ec578063a0f44c9214610417578063a81d6edd14610442576101a7565b80634a79d50c1161015957806371985c081161013357806371985c08146103405780637284e4161461036b5780637b5d2534146103965780638da5cb5b146103c1576101a7565b80634a79d50c146102c1578063538c7bf9146102ec57806371582e8614610315576101a7565b806317599cc5146101ac578063228cb733146101ec57806324e85faf1461021757806331b1b978146102425780633ccfd60b1461027f578063481c6a7514610296576101a7565b366101a757005b600080fd5b3480156101b857600080fd5b506101d360048036038101906101ce91906117e2565b61064c565b6040516101e3949392919061185f565b60405180910390f35b3480156101f857600080fd5b506102016106ac565b60405161020e91906118a4565b60405180910390f35b34801561022357600080fd5b5061022c6106b2565b60405161023991906118bf565b60405180910390f35b34801561024e57600080fd5b50610269600480360381019061026491906117e2565b6106d6565b604051610276919061196a565b60405180910390f35b34801561028b57600080fd5b5061029461078c565b005b3480156102a257600080fd5b506102ab610936565b6040516102b891906118bf565b60405180910390f35b3480156102cd57600080fd5b506102d661095c565b6040516102e3919061196a565b60405180910390f35b3480156102f857600080fd5b50610313600480360381019061030e9190611cb1565b6109ea565b005b34801561032157600080fd5b5061032a610ded565b60405161033791906118a4565b60405180910390f35b34801561034c57600080fd5b50610355610e04565b60405161036291906118a4565b60405180910390f35b34801561037757600080fd5b50610380610e0a565b60405161038d919061196a565b60405180910390f35b3480156103a257600080fd5b506103ab610e98565b6040516103b89190611d59565b60405180910390f35b3480156103cd57600080fd5b506103d6610ebe565b6040516103e391906118bf565b60405180910390f35b3480156103f857600080fd5b50610401610ee2565b60405161040e9190611f86565b60405180910390f35b34801561042357600080fd5b5061042c6110ac565b60405161043991906118a4565b60405180910390f35b34801561044e57600080fd5b506104576110b2565b60405161046491906118a4565b60405180910390f35b34801561047957600080fd5b50610494600480360381019061048f9190611fa8565b6110b8565b6040516104a191906118a4565b60405180910390f35b3480156104b657600080fd5b506104bf611160565b6040516104cc91906118a4565b60405180910390f35b3480156104e157600080fd5b506104ea611166565b6040516104f791906118a4565b60405180910390f35b34801561050c57600080fd5b5061051561116b565b60405161052291906118a4565b60405180910390f35b34801561053757600080fd5b50610540611171565b60405161054d919061200c565b60405180910390f35b34801561056257600080fd5b5061056b611184565b60405161057891906122eb565b60405180910390f35b34801561058d57600080fd5b5061059661131a565b6040516105ad9b9a9998979695949392919061230d565b60405180910390f35b3480156105c257600080fd5b506105cb6114ad565b6040516105d891906118a4565b60405180910390f35b3480156105ed57600080fd5b506105f66114b3565b005b34801561060457600080fd5b5061061f600480360381019061061a91906117e2565b611515565b005b34801561062d57600080fd5b5061063661168f565b60405161064391906118a4565b60405180910390f35b6009818154811061065c57600080fd5b90600052602060002090600d02016000915090508060000160009054906101000a900473ffffffffffffffffffffffffffffffffffffffff16908060020154908060030154908060040154905084565b60055481565b7f000000000000000000000000000000000000000000000000000000000000000081565b600881815481106106e657600080fd5b9060005260206000209060020201600091509050806000018054610709906123f5565b80601f0160208091040260200160405190810160405280929190818152602001828054610735906123f5565b80156107825780601f1061075757610100808354040283529160200191610782565b820191906000526020600020905b81548152906001019060200180831161076557829003601f168201915b5050505050905081565b60008054906101000a900473ffffffffffffffffffffffffffffffffffffffff1673ffffffffffffffffffffffffffffffffffffffff163373ffffffffffffffffffffffffffffffffffffffff161461081a576040517f08c379a000000000000000000000000000000000000000000000000000000000815260040161081190612472565b60405180910390fd5b6000471161085d576040517f08c379a0000000000000000000000000000000000000000000000000000000008152600401610854906124de565b60405180910390fd5b3073ffffffffffffffffffffffffffffffffffffffff1663bef4876b6040518163ffffffff1660e01b8152600401602060405180830381865afa1580156108a8573d6000803e3d6000fd5b505050506040513d601f19601f820116820180604052508101906108cc919061252a565b5060008054906101000a900473ffffffffffffffffffffffffffffffffffffffff1673ffffffffffffffffffffffffffffffffffffffff166108fc479081150290604051600060405180830381858888f19350505050158015610933573d6000803e3d6000fd5b50565b600160009054906101000a900473ffffffffffffffffffffffffffffffffffffffff1681565b60028054610969906123f5565b80601f0160208091040260200160405190810160405280929190818152602001828054610995906123f5565b80156109e25780601f106109b7576101008083540402835291602001916109e2565b820191906000526020600020905b8154815290600101906020018083116109c557829003601f168201915b505050505081565b60088054905081602001515114610a36576040517f08c379a0000000000000000000000000000000000000000000000000000000008152600401610a2d906125c9565b60405180910390fd5b60045460065410610a7c576040517f08c379a0000000000000000000000000000000000000000000000000000000008152600401610a7390612635565b60405180910390fd5b600c544210610ac0576040517f08c379a0000000000000000000000000000000000000000000000000000000008152600401610ab7906126a1565b60405180910390fd5b60003073ffffffffffffffffffffffffffffffffffffffff1663b2dc2f4583602001516040518263ffffffff1660e01b8152600401610aff9190612730565b602060405180830381865afa158015610b1c573d6000803e3d6000fd5b505050506040513d601f19601f82011682018060405250810190610b409190612767565b905060006040518060c00160405280846040015181526020018460600151815260200184608001518152602001838152602001600e5481526020018460a001518152509050600d60009054906101000a900473ffffffffffffffffffffffffffffffffffffffff1673ffffffffffffffffffffffffffffffffffffffff1663d0d898dd600e54836040518363ffffffff1660e01b8152600401610be4929190612810565b600060405180830381600087803b158015610bfe57600080fd5b505af1158015610c12573d6000803e3d6000fd5b5050505060005b600880549050811015610cbe5760088181548110610c3a57610c3961283a565b5b90600052602060002090600202016001018054905084602001518281518110610c6657610c6561283a565b5b602002602001015160ff1610610cb1576040517f08c379a0000000000000000000000000000000000000000000000000000000008152600401610ca8906128b5565b60405180910390fd5b8080600101915050610c19565b5060098390806001815401808255809150506001900390600052602060002090600d020160009091909190915060008201518160000160006101000a81548173ffffffffffffffffffffffffffffffffffffffff021916908373ffffffffffffffffffffffffffffffffffffffff1602179055506020820151816001019080519060200190610d4e929190611694565b5060408201518160020155606082015181600301556080820151816004015560a082015181600501906008610d8492919061173b565b5050503373ffffffffffffffffffffffffffffffffffffffff166108fc6005549081150290604051600060405180830381858888f19350505050158015610dcf573d6000803e3d6000fd5b5060066000815480929190610de390612904565b9190505550505050565b6000600654600454610dff919061294c565b905090565b60045481565b60038054610e17906123f5565b80601f0160208091040260200160405190810160405280929190818152602001828054610e43906123f5565b8015610e905780601f10610e6557610100808354040283529160200191610e90565b820191906000526020600020905b815481529060010190602001808311610e7357829003601f168201915b505050505081565b600d60009054906101000a900473ffffffffffffffffffffffffffffffffffffffff1681565b60008054906101000a900473ffffffffffffffffffffffffffffffffffffffff1681565b60606008805480602002602001604051908101604052809291908181526020016000905b828210156110a35783829060005260206000209060020201604051806040016040529081600082018054610f39906123f5565b80601f0160208091040260200160405190810160405280929190818152602001828054610f65906123f5565b8015610fb25780601f10610f8757610100808354040283529160200191610fb2565b820191906000526020600020905b815481529060010190602001808311610f9557829003601f168201915b5050505050815260200160018201805480602002602001604051908101604052809291908181526020016000905b8282101561108c578382906000526020600020018054610fff906123f5565b80601f016020809104026020016040519081016040528092919081815260200182805461102b906123f5565b80156110785780601f1061104d57610100808354040283529160200191611078565b820191906000526020600020905b81548152906001019060200180831161105b57829003601f168201915b505050505081526020019060010190610fe0565b505050508152505081526020019060010190610f06565b50505050905090565b600e5481565b60065481565b60006020825111156110ff576040517f08c379a00000000000000000000000000000000000000000000000000000000081526004016110f6906129cc565b60405180910390fd5b6000805b83518110156111565780601f611119919061294c565b600861112591906129ec565b8482815181106111385761113761283a565b5b602002602001015160ff16901b821791508080600101915050611103565b5080915050919050565b600b5481565b600181565b60075481565b600a60009054906101000a900460ff1681565b60606009805480602002602001604051908101604052809291908181526020016000905b8282101561131157838290600052602060002090600d02016040518060c00160405290816000820160009054906101000a900473ffffffffffffffffffffffffffffffffffffffff1673ffffffffffffffffffffffffffffffffffffffff1673ffffffffffffffffffffffffffffffffffffffff1681526020016001820180548060200260200160405190810160405280929190818152602001828054801561129657602002820191906000526020600020906000905b82829054906101000a900460ff1660ff168152602001906001019060208260000104928301926001038202915080841161125f5790505b50505050508152602001600282015481526020016003820154815260200160048201548152602001600582016008806020026040519081016040528092919082600880156112f9576020028201915b8154815260200190600101908083116112e5575b505050505081525050815260200190600101906111a8565b50505050905090565b60608060008060008060008060008060006002600360008054906101000a900473ffffffffffffffffffffffffffffffffffffffff16600554600454600654600b54600c54600180600a60009054906101000a900460ff168a805461137e906123f5565b80601f01602080910402602001604051908101604052809291908181526020018280546113aa906123f5565b80156113f75780601f106113cc576101008083540402835291602001916113f7565b820191906000526020600020905b8154815290600101906020018083116113da57829003601f168201915b50505050509a5089805461140a906123f5565b80601f0160208091040260200160405190810160405280929190818152602001828054611436906123f5565b80156114835780601f1061145857610100808354040283529160200191611483565b820191906000526020600020905b81548152906001019060200180831161146657829003601f168201915b505050505099509a509a509a509a509a509a509a509a509a509a509a50909192939495969798999a565b600c5481565b600c544210156114f8576040517f08c379a00000000000000000000000000000000000000000000000000000000081526004016114ef90612a7a565b60405180910390fd5b6001600a60006101000a81548160ff021916908315150217905550565b600160009054906101000a900473ffffffffffffffffffffffffffffffffffffffff1673ffffffffffffffffffffffffffffffffffffffff163373ffffffffffffffffffffffffffffffffffffffff16146115a5576040517f08c379a000000000000000000000000000000000000000000000000000000000815260040161159c90612ae6565b60405180910390fd5b60001515600a60009054906101000a900460ff161515146115fb576040517f08c379a00000000000000000000000000000000000000000000000000000000081526004016115f2906126a1565b60405180910390fd5b600d60009054906101000a900473ffffffffffffffffffffffffffffffffffffffff1673ffffffffffffffffffffffffffffffffffffffff16631783efc3600e54836040518363ffffffff1660e01b815260040161165a929190612b06565b600060405180830381600087803b15801561167457600080fd5b505af1158015611688573d6000803e3d6000fd5b5050505050565b600181565b82805482825590600052602060002090601f0160209004810192821561172a5791602002820160005b838211156116fb57835183826101000a81548160ff021916908360ff16021790555092602001926001016020816000010492830192600103026116bd565b80156117285782816101000a81549060ff02191690556001016020816000010492830192600103026116fb565b505b509050611737919061177b565b5090565b826008810192821561176a579160200282015b8281111561176957825182559160200191906001019061174e565b5b509050611777919061177b565b5090565b5b8082111561179457600081600090555060010161177c565b5090565b6000604051905090565b600080fd5b600080fd5b6000819050919050565b6117bf816117ac565b81146117ca57600080fd5b50565b6000813590506117dc816117b6565b92915050565b6000602082840312156117f8576117f76117a2565b5b6000611806848285016117cd565b91505092915050565b600073ffffffffffffffffffffffffffffffffffffffff82169050919050565b600061183a8261180f565b9050919050565b61184a8161182f565b82525050565b611859816117ac565b82525050565b60006080820190506118746000830187611841565b6118816020830186611850565b61188e6040830185611850565b61189b6060830184611850565b95945050505050565b60006020820190506118b96000830184611850565b92915050565b60006020820190506118d46000830184611841565b92915050565b600081519050919050565b600082825260208201905092915050565b60005b838110156119145780820151818401526020810190506118f9565b60008484015250505050565b6000601f19601f8301169050919050565b600061193c826118da565b61194681856118e5565b93506119568185602086016118f6565b61195f81611920565b840191505092915050565b600060208201905081810360008301526119848184611931565b905092915050565b600080fd5b7f4e487b7100000000000000000000000000000000000000000000000000000000600052604160045260246000fd5b6119c982611920565b810181811067ffffffffffffffff821117156119e8576119e7611991565b5b80604052505050565b60006119fb611798565b9050611a0782826119c0565b919050565b600080fd5b611a1a8161182f565b8114611a2557600080fd5b50565b600081359050611a3781611a11565b92915050565b600080fd5b600067ffffffffffffffff821115611a5d57611a5c611991565b5b602082029050602081019050919050565b600080fd5b600060ff82169050919050565b611a8981611a73565b8114611a9457600080fd5b50565b600081359050611aa681611a80565b92915050565b6000611abf611aba84611a42565b6119f1565b90508083825260208201905060208402830185811115611ae257611ae1611a6e565b5b835b81811015611b0b5780611af78882611a97565b845260208401935050602081019050611ae4565b5050509392505050565b600082601f830112611b2a57611b29611a3d565b5b8135611b3a848260208601611aac565b91505092915050565b600067ffffffffffffffff821115611b5e57611b5d611991565b5b602082029050919050565b6000611b7c611b7784611b43565b6119f1565b90508060208402830185811115611b9657611b95611a6e565b5b835b81811015611bbf5780611bab88826117cd565b845260208401935050602081019050611b98565b5050509392505050565b600082601f830112611bde57611bdd611a3d565b5b6008611beb848285611b69565b91505092915050565b60006101a08284031215611c0b57611c0a61198c565b5b611c1560c06119f1565b90506000611c2584828501611a28565b600083015250602082013567ffffffffffffffff811115611c4957611c48611a0c565b5b611c5584828501611b15565b6020830152506040611c69848285016117cd565b6040830152506060611c7d848285016117cd565b6060830152506080611c91848285016117cd565b60808301525060a0611ca584828501611bc9565b60a08301525092915050565b600060208284031215611cc757611cc66117a2565b5b600082013567ffffffffffffffff811115611ce557611ce46117a7565b5b611cf184828501611bf4565b91505092915050565b6000819050919050565b6000611d1f611d1a611d158461180f565b611cfa565b61180f565b9050919050565b6000611d3182611d04565b9050919050565b6000611d4382611d26565b9050919050565b611d5381611d38565b82525050565b6000602082019050611d6e6000830184611d4a565b92915050565b600081519050919050565b600082825260208201905092915050565b6000819050602082019050919050565b600082825260208201905092915050565b6000611dbc826118da565b611dc68185611da0565b9350611dd68185602086016118f6565b611ddf81611920565b840191505092915050565b600081519050919050565b600082825260208201905092915050565b6000819050602082019050919050565b6000611e228383611db1565b905092915050565b6000602082019050919050565b6000611e4282611dea565b611e4c8185611df5565b935083602082028501611e5e85611e06565b8060005b85811015611e9a5784840389528151611e7b8582611e16565b9450611e8683611e2a565b925060208a01995050600181019050611e62565b50829750879550505050505092915050565b60006040830160008301518482036000860152611ec98282611db1565b91505060208301518482036020860152611ee38282611e37565b9150508091505092915050565b6000611efc8383611eac565b905092915050565b6000602082019050919050565b6000611f1c82611d74565b611f268185611d7f565b935083602082028501611f3885611d90565b8060005b85811015611f745784840389528151611f558582611ef0565b9450611f6083611f04565b925060208a01995050600181019050611f3c565b50829750879550505050505092915050565b60006020820190508181036000830152611fa08184611f11565b905092915050565b600060208284031215611fbe57611fbd6117a2565b5b600082013567ffffffffffffffff811115611fdc57611fdb6117a7565b5b611fe884828501611b15565b91505092915050565b60008115159050919050565b61200681611ff1565b82525050565b60006020820190506120216000830184611ffd565b92915050565b600081519050919050565b600082825260208201905092915050565b6000819050602082019050919050565b61205c8161182f565b82525050565b600081519050919050565b600082825260208201905092915050565b6000819050602082019050919050565b61209781611a73565b82525050565b60006120a9838361208e565b60208301905092915050565b6000602082019050919050565b60006120cd82612062565b6120d7818561206d565b93506120e28361207e565b8060005b838110156121135781516120fa888261209d565b9750612105836120b5565b9250506001810190506120e6565b5085935050505092915050565b612129816117ac565b82525050565b600060089050919050565b600081905092915050565b6000819050919050565b600061215b8383612120565b60208301905092915050565b6000602082019050919050565b61217d8161212f565b612187818461213a565b925061219282612145565b8060005b838110156121c35781516121aa878261214f565b96506121b583612167565b925050600181019050612196565b505050505050565b60006101a0830160008301516121e46000860182612053565b50602083015184820360208601526121fc82826120c2565b91505060408301516122116040860182612120565b5060608301516122246060860182612120565b5060808301516122376080860182612120565b5060a083015161224a60a0860182612174565b508091505092915050565b600061226183836121cb565b905092915050565b6000602082019050919050565b600061228182612027565b61228b8185612032565b93508360208202850161229d85612043565b8060005b858110156122d957848403895281516122ba8582612255565b94506122c583612269565b925060208a019950506001810190506122a1565b50829750879550505050505092915050565b600060208201905081810360008301526123058184612276565b905092915050565b6000610160820190508181036000830152612328818e611931565b9050818103602083015261233c818d611931565b905061234b604083018c611841565b612358606083018b611850565b612365608083018a611850565b61237260a0830189611850565b61237f60c0830188611850565b61238c60e0830187611850565b61239a610100830186611850565b6123a8610120830185611850565b6123b6610140830184611ffd565b9c9b505050505050505050505050565b7f4e487b7100000000000000000000000000000000000000000000000000000000600052602260045260246000fd5b6000600282049050600182168061240d57607f821691505b6020821081036124205761241f6123c6565b5b50919050565b7f4f6e6c79206f776e65722063616e207769746864726177000000000000000000600082015250565b600061245c6017836118e5565b915061246782612426565b602082019050919050565b6000602082019050818103600083015261248b8161244f565b9050919050565b7f4e6f2062616c616e636520746f20776974686472617700000000000000000000600082015250565b60006124c86016836118e5565b91506124d382612492565b602082019050919050565b600060208201905081810360008301526124f7816124bb565b9050919050565b61250781611ff1565b811461251257600080fd5b50565b600081519050612524816124fe565b92915050565b6000602082840312156125405761253f6117a2565b5b600061254e84828501612515565b91505092915050565b7f416e73776572206c656e677468206d757374206d61746368207175657374696f60008201527f6e206c656e677468000000000000000000000000000000000000000000000000602082015250565b60006125b36028836118e5565b91506125be82612557565b604082019050919050565b600060208201905081810360008301526125e2816125a6565b9050919050565b7f53757276657920697320616c72656164792066756c6c00000000000000000000600082015250565b600061261f6016836118e5565b915061262a826125e9565b602082019050919050565b6000602082019050818103600083015261264e81612612565b9050919050565b7f5375727665792069732066696e69736865640000000000000000000000000000600082015250565b600061268b6012836118e5565b915061269682612655565b602082019050919050565b600060208201905081810360008301526126ba8161267e565b9050919050565b600082825260208201905092915050565b60006126dd82612062565b6126e781856126c1565b93506126f28361207e565b8060005b8381101561272357815161270a888261209d565b9750612715836120b5565b9250506001810190506126f6565b5085935050505092915050565b6000602082019050818103600083015261274a81846126d2565b905092915050565b600081519050612761816117b6565b92915050565b60006020828403121561277d5761277c6117a2565b5b600061278b84828501612752565b91505092915050565b6101a0820160008201516127ab6000850182612120565b5060208201516127be6020850182612120565b5060408201516127d16040850182612120565b5060608201516127e46060850182612120565b5060808201516127f76080850182612120565b5060a082015161280a60a0850182612174565b50505050565b60006101c0820190506128266000830185611850565b6128336020830184612794565b9392505050565b7f4e487b7100000000000000000000000000000000000000000000000000000000600052603260045260246000fd5b7f416e73776572206f7574206f6620626f756e6473000000000000000000000000600082015250565b600061289f6014836118e5565b91506128aa82612869565b602082019050919050565b600060208201905081810360008301526128ce81612892565b9050919050565b7f4e487b7100000000000000000000000000000000000000000000000000000000600052601160045260246000fd5b600061290f826117ac565b91507fffffffffffffffffffffffffffffffffffffffffffffffffffffffffffffffff8203612941576129406128d5565b5b600182019050919050565b6000612957826117ac565b9150612962836117ac565b925082820390508181111561297a576129796128d5565b5b92915050565b7f75696e74385b5d20657863656564732033322062797465730000000000000000600082015250565b60006129b66018836118e5565b91506129c182612980565b602082019050919050565b600060208201905081810360008301526129e5816129a9565b9050919050565b60006129f7826117ac565b9150612a02836117ac565b9250828202612a10816117ac565b91508282048414831517612a2757612a266128d5565b5b5092915050565b7f537572766579206973206e6f742066696e697368656420796574000000000000600082015250565b6000612a64601a836118e5565b9150612a6f82612a2e565b602082019050919050565b60006020820190508181036000830152612a9381612a57565b9050919050565b7f4163636573732064656e6965643a204e6f7420746865206d616e616765720000600082015250565b6000612ad0601e836118e5565b9150612adb82612a9a565b602082019050919050565b60006020820190508181036000830152612aff81612ac3565b9050919050565b6000604082019050612b1b6000830185611850565b612b286020830184611850565b939250505056fea264697066735822122079d878ec2003b3d14f62e5269a238229e2e224709b060cb2c09917c8d6a8d35e64736f6c634300081b0033",
  "linkReferences": {},
  "deployedLinkReferences": {}
}