{
  "_format": "hh-sol-artifact-1",
  "contractName": "SurveyV1",
  "sourceName": "contracts/SurveyV1.sol",
  "abi": [
    {
      "inputs": [
        {
          "internalType": "string",
          "name": "_title",
          "type": "string"
        },
        {
          "internalType": "string",
          "name": "_description",
          "type": "string"
        },
        {
          "components": [
            {
              "internalType": "string",
              "name": "question",
              "type": "string"
            },
            {
              "internalType": "string[]",
              "name": "options",
              "type": "string[]"
            }
          ],
          "internalType": "struct SurveyV1.Question[]",
          "name": "_questions",
          "type": "tuple[]"
        },
        {
          "internalType": "uint256",
          "name": "_targetNumber",
          "type": "uint256"
        },
        {
          "internalType": "uint256",
          "name": "_lockedUntil",
          "type": "uint256"
        },
        {
          "internalType": "uint256",
          "name": "_burnRate",
          "type": "uint256"
        },
        {
          "internalType": "contract ISemaphore",
          "name": "_semaphore",
          "type": "address"
        },
        {
          "internalType": "address",
          "name": "_manager",
          "type": "address"
        }
      ],
      "stateMutability": "payable",
      "type": "constructor"
    },
    {
      "anonymous": false,
      "inputs": [
        {
          "indexed": true,
          "internalType": "address",
          "name": "respondent",
          "type": "address"
        },
        {
          "indexed": true,
          "internalType": "uint256",
          "name": "surveyId",
          "type": "uint256"
        },
        {
          "indexed": false,
          "internalType": "uint8[]",
          "name": "answers",
          "type": "uint8[]"
        }
      ],
      "name": "AnswerSubmitted",
      "type": "event"
    },
    {
      "anonymous": false,
      "inputs": [
        {
          "indexed": true,
          "internalType": "uint256",
          "name": "surveyId",
          "type": "uint256"
        }
      ],
      "name": "SurveyFinished",
      "type": "event"
    },
    {
      "inputs": [],
      "name": "SURVEY_FACTORY",
      "outputs": [
        {
          "internalType": "address",
          "name": "",
          "type": "address"
        }
      ],
      "stateMutability": "view",
      "type": "function"
    },
    {
      "inputs": [],
      "name": "TYPE",
      "outputs": [
        {
          "internalType": "uint256",
          "name": "",
          "type": "uint256"
        }
      ],
      "stateMutability": "view",
      "type": "function"
    },
    {
      "inputs": [],
      "name": "VERSION",
      "outputs": [
        {
          "internalType": "uint256",
          "name": "",
          "type": "uint256"
        }
      ],
      "stateMutability": "view",
      "type": "function"
    },
    {
      "inputs": [
        {
          "internalType": "uint256",
          "name": "",
          "type": "uint256"
        }
      ],
      "name": "answers",
      "outputs": [
        {
          "internalType": "address",
          "name": "respondent",
          "type": "address"
        },
        {
          "internalType": "uint256",
          "name": "merkleTreeDepth",
          "type": "uint256"
        },
        {
          "internalType": "uint256",
          "name": "merkleTreeRoot",
          "type": "uint256"
        },
        {
          "internalType": "uint256",
          "name": "nullifier",
          "type": "uint256"
        }
      ],
      "stateMutability": "view",
      "type": "function"
    },
    {
      "inputs": [],
      "name": "burnRate",
      "outputs": [
        {
          "internalType": "uint256",
          "name": "",
          "type": "uint256"
        }
      ],
      "stateMutability": "view",
      "type": "function"
    },
    {
      "inputs": [],
      "name": "description",
      "outputs": [
        {
          "internalType": "string",
          "name": "",
          "type": "string"
        }
      ],
      "stateMutability": "view",
      "type": "function"
    },
    {
      "inputs": [],
      "name": "finish",
      "outputs": [],
      "stateMutability": "nonpayable",
      "type": "function"
    },
    {
      "inputs": [],
      "name": "finished",
      "outputs": [
        {
          "internalType": "bool",
          "name": "",
          "type": "bool"
        }
      ],
      "stateMutability": "view",
      "type": "function"
    },
    {
      "inputs": [],
      "name": "getAnswers",
      "outputs": [
        {
          "components": [
            {
              "internalType": "address",
              "name": "respondent",
              "type": "address"
            },
            {
              "internalType": "uint8[]",
              "name": "answers",
              "type": "uint8[]"
            },
            {
              "internalType": "uint256",
              "name": "merkleTreeDepth",
              "type": "uint256"
            },
            {
              "internalType": "uint256",
              "name": "merkleTreeRoot",
              "type": "uint256"
            },
            {
              "internalType": "uint256",
              "name": "nullifier",
              "type": "uint256"
            },
            {
              "internalType": "uint256[8]",
              "name": "points",
              "type": "uint256[8]"
            }
          ],
          "internalType": "struct SurveyV1.Answer[]",
          "name": "",
          "type": "tuple[]"
        }
      ],
      "stateMutability": "view",
      "type": "function"
    },
    {
      "inputs": [],
      "name": "getQuestions",
      "outputs": [
        {
          "components": [
            {
              "internalType": "string",
              "name": "question",
              "type": "string"
            },
            {
              "internalType": "string[]",
              "name": "options",
              "type": "string[]"
            }
          ],
          "internalType": "struct SurveyV1.Question[]",
          "name": "",
          "type": "tuple[]"
        }
      ],
      "stateMutability": "view",
      "type": "function"
    },
    {
      "inputs": [],
      "name": "groupId",
      "outputs": [
        {
          "internalType": "uint256",
          "name": "",
          "type": "uint256"
        }
      ],
      "stateMutability": "view",
      "type": "function"
    },
    {
      "inputs": [
        {
          "internalType": "uint256",
          "name": "identityCommitment",
          "type": "uint256"
        }
      ],
      "name": "joinGroup",
      "outputs": [],
      "stateMutability": "nonpayable",
      "type": "function"
    },
    {
      "inputs": [],
      "name": "lockedUntil",
      "outputs": [
        {
          "internalType": "uint256",
          "name": "",
          "type": "uint256"
        }
      ],
      "stateMutability": "view",
      "type": "function"
    },
    {
      "inputs": [],
      "name": "manager",
      "outputs": [
        {
          "internalType": "address",
          "name": "",
          "type": "address"
        }
      ],
      "stateMutability": "view",
      "type": "function"
    },
    {
      "inputs": [],
      "name": "owner",
      "outputs": [
        {
          "internalType": "address",
          "name": "",
          "type": "address"
        }
      ],
      "stateMutability": "view",
      "type": "function"
    },
    {
      "inputs": [
        {
          "internalType": "uint256",
          "name": "",
          "type": "uint256"
        }
      ],
      "name": "questions",
      "outputs": [
        {
          "internalType": "string",
          "name": "question",
          "type": "string"
        }
      ],
      "stateMutability": "view",
      "type": "function"
    },
    {
      "inputs": [],
      "name": "remainingSurveys",
      "outputs": [
        {
          "internalType": "uint256",
          "name": "",
          "type": "uint256"
        }
      ],
      "stateMutability": "view",
      "type": "function"
    },
    {
      "inputs": [
        {
          "internalType": "uint256",
          "name": "",
          "type": "uint256"
        }
      ],
      "name": "respondents",
      "outputs": [
        {
          "internalType": "address",
          "name": "",
          "type": "address"
        }
      ],
      "stateMutability": "view",
      "type": "function"
    },
    {
      "inputs": [],
      "name": "reward",
      "outputs": [
        {
          "internalType": "uint256",
          "name": "",
          "type": "uint256"
        }
      ],
      "stateMutability": "view",
      "type": "function"
    },
    {
      "inputs": [],
      "name": "semaphore",
      "outputs": [
        {
          "internalType": "contract ISemaphore",
          "name": "",
          "type": "address"
        }
      ],
      "stateMutability": "view",
      "type": "function"
    },
    {
      "inputs": [
        {
          "components": [
            {
              "internalType": "address",
              "name": "respondent",
              "type": "address"
            },
            {
              "internalType": "uint8[]",
              "name": "answers",
              "type": "uint8[]"
            },
            {
              "internalType": "uint256",
              "name": "merkleTreeDepth",
              "type": "uint256"
            },
            {
              "internalType": "uint256",
              "name": "merkleTreeRoot",
              "type": "uint256"
            },
            {
              "internalType": "uint256",
              "name": "nullifier",
              "type": "uint256"
            },
            {
              "internalType": "uint256[8]",
              "name": "points",
              "type": "uint256[8]"
            }
          ],
          "internalType": "struct SurveyV1.Answer",
          "name": "_answer",
          "type": "tuple"
        }
      ],
      "name": "submitAnswer",
      "outputs": [],
      "stateMutability": "nonpayable",
      "type": "function"
    },
    {
      "inputs": [],
      "name": "surveyInfo",
      "outputs": [
        {
          "internalType": "string",
          "name": "",
          "type": "string"
        },
        {
          "internalType": "string",
          "name": "",
          "type": "string"
        },
        {
          "internalType": "address",
          "name": "",
          "type": "address"
        },
        {
          "internalType": "uint256",
          "name": "",
          "type": "uint256"
        },
        {
          "internalType": "uint256",
          "name": "",
          "type": "uint256"
        },
        {
          "internalType": "uint256",
          "name": "",
          "type": "uint256"
        },
        {
          "internalType": "uint256",
          "name": "",
          "type": "uint256"
        },
        {
          "internalType": "uint256",
          "name": "",
          "type": "uint256"
        },
        {
          "internalType": "uint256",
          "name": "",
          "type": "uint256"
        },
        {
          "internalType": "uint256",
          "name": "",
          "type": "uint256"
        },
        {
          "internalType": "bool",
          "name": "",
          "type": "bool"
        }
      ],
      "stateMutability": "view",
      "type": "function"
    },
    {
      "inputs": [],
      "name": "surveyNumber",
      "outputs": [
        {
          "internalType": "uint256",
          "name": "",
          "type": "uint256"
        }
      ],
      "stateMutability": "view",
      "type": "function"
    },
    {
      "inputs": [],
      "name": "targetNumber",
      "outputs": [
        {
          "internalType": "uint256",
          "name": "",
          "type": "uint256"
        }
      ],
      "stateMutability": "view",
      "type": "function"
    },
    {
      "inputs": [],
      "name": "timestamp",
      "outputs": [
        {
          "internalType": "uint256",
          "name": "",
          "type": "uint256"
        }
      ],
      "stateMutability": "view",
      "type": "function"
    },
    {
      "inputs": [],
      "name": "title",
      "outputs": [
        {
          "internalType": "string",
          "name": "",
          "type": "string"
        }
      ],
      "stateMutability": "view",
      "type": "function"
    },
    {
      "inputs": [
        {
          "internalType": "uint8[]",
          "name": "data",
          "type": "uint8[]"
        }
      ],
      "name": "uint8ArrayToUint256",
      "outputs": [
        {
          "internalType": "uint256",
          "name": "",
          "type": "uint256"
        }
      ],
      "stateMutability": "pure",
      "type": "function"
    },
    {
      "inputs": [],
      "name": "withdraw",
      "outputs": [],
      "stateMutability": "nonpayable",
      "type": "function"
    },
    {
      "stateMutability": "payable",
      "type": "receive"
    }
  ],
  "bytecode": "0x60a06040526000600b60006101000a81548160ff021916908315150217905550604051613d43380380613d43833981810160405281019061004091906109ff565b3373ffffffffffffffffffffffffffffffffffffffff1660808173ffffffffffffffffffffffffffffffffffffffff1681525050600060068190555060005b865181101561022957600087828151811061009d5761009c610b09565b5b6020026020010151602001515167ffffffffffffffff8111156100c3576100c261058e565b5b6040519080825280602002602001820160405280156100f657816020015b60608152602001906001900390816100e15790505b50905060005b88838151811061010f5761010e610b09565b5b602002602001015160200151518110156101875788838151811061013657610135610b09565b5b602002602001015160200151818151811061015457610153610b09565b5b602002602001015182828151811061016f5761016e610b09565b5b602002602001018190525080806001019150506100fc565b50600860405180604001604052808a85815181106101a8576101a7610b09565b5b602002602001015160000151815260200183815250908060018154018082558091505060019003906000526020600020906002020160009091909190915060008201518160000190816101fb9190610d4f565b506020820151816001019080519060200190610218929190610485565b50505050808060010191505061007f565b5087600290816102399190610d4f565b5086600390816102499190610d4f565b50826007819055508460048190555042600c81905550620151808461026e9190610e50565b600c5461027b9190610e92565b600d81905550336000806101000a81548173ffffffffffffffffffffffffffffffffffffffff021916908373ffffffffffffffffffffffffffffffffffffffff16021790555081600e60006101000a81548173ffffffffffffffffffffffffffffffffffffffff021916908373ffffffffffffffffffffffffffffffffffffffff160217905550600e60009054906101000a900473ffffffffffffffffffffffffffffffffffffffff1673ffffffffffffffffffffffffffffffffffffffff1663575185ed6040518163ffffffff1660e01b81526004016020604051808303816000875af1158015610371573d6000803e3d6000fd5b505050506040513d601f19601f820116820180604052508101906103959190610ec6565b600f8190555080600160006101000a81548173ffffffffffffffffffffffffffffffffffffffff021916908373ffffffffffffffffffffffffffffffffffffffff16021790555061dead73ffffffffffffffffffffffffffffffffffffffff166108fc612710600754346104099190610e50565b6104139190610f22565b9081150290604051600060405180830381858888f1935050505015801561043e573d6000803e3d6000fd5b50600454612710600754346104539190610e50565b61045d9190610f22565b346104689190610f53565b6104729190610f22565b6005819055505050505050505050610f87565b8280548282559060005260206000209081019282156104cd579160200282015b828111156104cc5782518290816104bc9190610d4f565b50916020019190600101906104a5565b5b5090506104da91906104de565b5090565b5b808211156104fe57600081816104f59190610502565b506001016104df565b5090565b50805461050e90610b72565b6000825580601f10610520575061053f565b601f01602090049060005260206000209081019061053e9190610542565b5b50565b5b8082111561055b576000816000905550600101610543565b5090565b6000604051905090565b600080fd5b600080fd5b600080fd5b600080fd5b6000601f19601f8301169050919050565b7f4e487b7100000000000000000000000000000000000000000000000000000000600052604160045260246000fd5b6105c68261057d565b810181811067ffffffffffffffff821117156105e5576105e461058e565b5b80604052505050565b60006105f861055f565b905061060482826105bd565b919050565b600067ffffffffffffffff8211156106245761062361058e565b5b61062d8261057d565b9050602081019050919050565b60005b8381101561065857808201518184015260208101905061063d565b60008484015250505050565b600061067761067284610609565b6105ee565b90508281526020810184848401111561069357610692610578565b5b61069e84828561063a565b509392505050565b600082601f8301126106bb576106ba610573565b5b81516106cb848260208601610664565b91505092915050565b600067ffffffffffffffff8211156106ef576106ee61058e565b5b602082029050602081019050919050565b600080fd5b600080fd5b600080fd5b600067ffffffffffffffff82111561072a5761072961058e565b5b602082029050602081019050919050565b600061074e6107498461070f565b6105ee565b9050808382526020820190506020840283018581111561077157610770610700565b5b835b818110156107b857805167ffffffffffffffff81111561079657610795610573565b5b8086016107a389826106a6565b85526020850194505050602081019050610773565b5050509392505050565b600082601f8301126107d7576107d6610573565b5b81516107e784826020860161073b565b91505092915050565b60006040828403121561080657610805610705565b5b61081060406105ee565b9050600082015167ffffffffffffffff8111156108305761082f61070a565b5b61083c848285016106a6565b600083015250602082015167ffffffffffffffff8111156108605761085f61070a565b5b61086c848285016107c2565b60208301525092915050565b600061088b610886846106d4565b6105ee565b905080838252602082019050602084028301858111156108ae576108ad610700565b5b835b818110156108f557805167ffffffffffffffff8111156108d3576108d2610573565b5b8086016108e089826107f0565b855260208501945050506020810190506108b0565b5050509392505050565b600082601f83011261091457610913610573565b5b8151610924848260208601610878565b91505092915050565b6000819050919050565b6109408161092d565b811461094b57600080fd5b50565b60008151905061095d81610937565b92915050565b600073ffffffffffffffffffffffffffffffffffffffff82169050919050565b600061098e82610963565b9050919050565b60006109a082610983565b9050919050565b6109b081610995565b81146109bb57600080fd5b50565b6000815190506109cd816109a7565b92915050565b6109dc81610983565b81146109e757600080fd5b50565b6000815190506109f9816109d3565b92915050565b600080600080600080600080610100898b031215610a2057610a1f610569565b5b600089015167ffffffffffffffff811115610a3e57610a3d61056e565b5b610a4a8b828c016106a6565b985050602089015167ffffffffffffffff811115610a6b57610a6a61056e565b5b610a778b828c016106a6565b975050604089015167ffffffffffffffff811115610a9857610a9761056e565b5b610aa48b828c016108ff565b9650506060610ab58b828c0161094e565b9550506080610ac68b828c0161094e565b94505060a0610ad78b828c0161094e565b93505060c0610ae88b828c016109be565b92505060e0610af98b828c016109ea565b9150509295985092959890939650565b7f4e487b7100000000000000000000000000000000000000000000000000000000600052603260045260246000fd5b600081519050919050565b7f4e487b7100000000000000000000000000000000000000000000000000000000600052602260045260246000fd5b60006002820490506001821680610b8a57607f821691505b602082108103610b9d57610b9c610b43565b5b50919050565b60008190508160005260206000209050919050565b60006020601f8301049050919050565b600082821b905092915050565b600060088302610c057fffffffffffffffffffffffffffffffffffffffffffffffffffffffffffffffff82610bc8565b610c0f8683610bc8565b95508019841693508086168417925050509392505050565b6000819050919050565b6000610c4c610c47610c428461092d565b610c27565b61092d565b9050919050565b6000819050919050565b610c6683610c31565b610c7a610c7282610c53565b848454610bd5565b825550505050565b600090565b610c8f610c82565b610c9a818484610c5d565b505050565b5b81811015610cbe57610cb3600082610c87565b600181019050610ca0565b5050565b601f821115610d0357610cd481610ba3565b610cdd84610bb8565b81016020851015610cec578190505b610d00610cf885610bb8565b830182610c9f565b50505b505050565b600082821c905092915050565b6000610d2660001984600802610d08565b1980831691505092915050565b6000610d3f8383610d15565b9150826002028217905092915050565b610d5882610b38565b67ffffffffffffffff811115610d7157610d7061058e565b5b610d7b8254610b72565b610d86828285610cc2565b600060209050601f831160018114610db95760008415610da7578287015190505b610db18582610d33565b865550610e19565b601f198416610dc786610ba3565b60005b82811015610def57848901518255600182019150602085019450602081019050610dca565b86831015610e0c5784890151610e08601f891682610d15565b8355505b6001600288020188555050505b505050505050565b7f4e487b7100000000000000000000000000000000000000000000000000000000600052601160045260246000fd5b6000610e5b8261092d565b9150610e668361092d565b9250828202610e748161092d565b91508282048414831517610e8b57610e8a610e21565b5b5092915050565b6000610e9d8261092d565b9150610ea88361092d565b9250828201905080821115610ec057610ebf610e21565b5b92915050565b600060208284031215610edc57610edb610569565b5b6000610eea8482850161094e565b91505092915050565b7f4e487b7100000000000000000000000000000000000000000000000000000000600052601260045260246000fd5b6000610f2d8261092d565b9150610f388361092d565b925082610f4857610f47610ef3565b5b828204905092915050565b6000610f5e8261092d565b9150610f698361092d565b9250828203905081811115610f8157610f80610e21565b5b92915050565b608051612da1610fa2600039600061070c0152612da16000f3fe6080604052600436106101bb5760003560e01c806397221ab7116100ec578063bef4876b1161008a578063ce0617ec11610064578063ce0617ec1461060e578063d56b288914610639578063eed02e4b14610650578063ffa1ad7414610679576101c2565b8063bef4876b14610583578063c793fcf9146105ae578063c84862d4146105d9576101c2565b8063b2dc2f45116100c6578063b2dc2f45146104c5578063b80777ea14610502578063bb24fe8a1461052d578063bed9985014610558576101c2565b806397221ab714610444578063a0f44c921461046f578063a81d6edd1461049a576101c2565b8063538c7bf91161015957806371985c081161013357806371985c08146103985780637284e416146103c35780637b5d2534146103ee5780638da5cb5b14610419576101c2565b8063538c7bf914610307578063634994361461033057806371582e861461036d576101c2565b806331b1b9781161019557806331b1b9781461025d5780633ccfd60b1461029a578063481c6a75146102b15780634a79d50c146102dc576101c2565b806317599cc5146101c7578063228cb7331461020757806324e85faf14610232576101c2565b366101c257005b600080fd5b3480156101d357600080fd5b506101ee60048036038101906101e991906119b2565b6106a4565b6040516101fe9493929190611a2f565b60405180910390f35b34801561021357600080fd5b5061021c610704565b6040516102299190611a74565b60405180910390f35b34801561023e57600080fd5b5061024761070a565b6040516102549190611a8f565b60405180910390f35b34801561026957600080fd5b50610284600480360381019061027f91906119b2565b61072e565b6040516102919190611b3a565b60405180910390f35b3480156102a657600080fd5b506102af6107e4565b005b3480156102bd57600080fd5b506102c661098e565b6040516102d39190611a8f565b60405180910390f35b3480156102e857600080fd5b506102f16109b4565b6040516102fe9190611b3a565b60405180910390f35b34801561031357600080fd5b5061032e60048036038101906103299190611e81565b610a42565b005b34801561033c57600080fd5b50610357600480360381019061035291906119b2565b610f72565b6040516103649190611a8f565b60405180910390f35b34801561037957600080fd5b50610382610fb1565b60405161038f9190611a74565b60405180910390f35b3480156103a457600080fd5b506103ad610fc8565b6040516103ba9190611a74565b60405180910390f35b3480156103cf57600080fd5b506103d8610fce565b6040516103e59190611b3a565b60405180910390f35b3480156103fa57600080fd5b5061040361105c565b6040516104109190611f29565b60405180910390f35b34801561042557600080fd5b5061042e611082565b60405161043b9190611a8f565b60405180910390f35b34801561045057600080fd5b506104596110a6565b6040516104669190612156565b60405180910390f35b34801561047b57600080fd5b50610484611270565b6040516104919190611a74565b60405180910390f35b3480156104a657600080fd5b506104af611276565b6040516104bc9190611a74565b60405180910390f35b3480156104d157600080fd5b506104ec60048036038101906104e79190612178565b61127c565b6040516104f99190611a74565b60405180910390f35b34801561050e57600080fd5b50610517611330565b6040516105249190611a74565b60405180910390f35b34801561053957600080fd5b50610542611336565b60405161054f9190611a74565b60405180910390f35b34801561056457600080fd5b5061056d61133b565b60405161057a9190611a74565b60405180910390f35b34801561058f57600080fd5b50610598611341565b6040516105a591906121dc565b60405180910390f35b3480156105ba57600080fd5b506105c3611354565b6040516105d091906124bb565b60405180910390f35b3480156105e557600080fd5b506105ee6114ea565b6040516106059b9a999897969594939291906124dd565b60405180910390f35b34801561061a57600080fd5b5061062361167d565b6040516106309190611a74565b60405180910390f35b34801561064557600080fd5b5061064e611683565b005b34801561065c57600080fd5b50610677600480360381019061067291906119b2565b6116e5565b005b34801561068557600080fd5b5061068e61185f565b60405161069b9190611a74565b60405180910390f35b600981815481106106b457600080fd5b90600052602060002090600d02016000915090508060000160009054906101000a900473ffffffffffffffffffffffffffffffffffffffff16908060020154908060030154908060040154905084565b60055481565b7f000000000000000000000000000000000000000000000000000000000000000081565b6008818154811061073e57600080fd5b9060005260206000209060020201600091509050806000018054610761906125c5565b80601f016020809104026020016040519081016040528092919081815260200182805461078d906125c5565b80156107da5780601f106107af576101008083540402835291602001916107da565b820191906000526020600020905b8154815290600101906020018083116107bd57829003601f168201915b5050505050905081565b60008054906101000a900473ffffffffffffffffffffffffffffffffffffffff1673ffffffffffffffffffffffffffffffffffffffff163373ffffffffffffffffffffffffffffffffffffffff1614610872576040517f08c379a000000000000000000000000000000000000000000000000000000000815260040161086990612642565b60405180910390fd5b600047116108b5576040517f08c379a00000000000000000000000000000000000000000000000000000000081526004016108ac906126ae565b60405180910390fd5b3073ffffffffffffffffffffffffffffffffffffffff1663bef4876b6040518163ffffffff1660e01b8152600401602060405180830381865afa158015610900573d6000803e3d6000fd5b505050506040513d601f19601f8201168201806040525081019061092491906126fa565b5060008054906101000a900473ffffffffffffffffffffffffffffffffffffffff1673ffffffffffffffffffffffffffffffffffffffff166108fc479081150290604051600060405180830381858888f1935050505015801561098b573d6000803e3d6000fd5b50565b600160009054906101000a900473ffffffffffffffffffffffffffffffffffffffff1681565b600280546109c1906125c5565b80601f01602080910402602001604051908101604052809291908181526020018280546109ed906125c5565b8015610a3a5780601f10610a0f57610100808354040283529160200191610a3a565b820191906000526020600020905b815481529060010190602001808311610a1d57829003601f168201915b505050505081565b60088054905081602001515114610a8e576040517f08c379a0000000000000000000000000000000000000000000000000000000008152600401610a8590612799565b60405180910390fd5b60045460065410610ad4576040517f08c379a0000000000000000000000000000000000000000000000000000000008152600401610acb90612805565b60405180910390fd5b600d544210610b18576040517f08c379a0000000000000000000000000000000000000000000000000000000008152600401610b0f90612871565b60405180910390fd5b60005b600a80549050811015610be1573373ffffffffffffffffffffffffffffffffffffffff16600a8281548110610b5357610b52612891565b5b9060005260206000200160009054906101000a900473ffffffffffffffffffffffffffffffffffffffff1673ffffffffffffffffffffffffffffffffffffffff1603610bd4576040517f08c379a0000000000000000000000000000000000000000000000000000000008152600401610bcb9061290c565b60405180910390fd5b8080600101915050610b1b565b5060003073ffffffffffffffffffffffffffffffffffffffff1663b2dc2f4583602001516040518263ffffffff1660e01b8152600401610c21919061299b565b602060405180830381865afa158015610c3e573d6000803e3d6000fd5b505050506040513d601f19601f82011682018060405250810190610c6291906129d2565b905060006040518060c00160405280846040015181526020018460600151815260200184608001518152602001838152602001600f5481526020018460a001518152509050600e60009054906101000a900473ffffffffffffffffffffffffffffffffffffffff1673ffffffffffffffffffffffffffffffffffffffff1663d0d898dd600f54836040518363ffffffff1660e01b8152600401610d06929190612a7b565b600060405180830381600087803b158015610d2057600080fd5b505af1158015610d34573d6000803e3d6000fd5b5050505060005b600880549050811015610de05760088181548110610d5c57610d5b612891565b5b90600052602060002090600202016001018054905084602001518281518110610d8857610d87612891565b5b602002602001015160ff1610610dd3576040517f08c379a0000000000000000000000000000000000000000000000000000000008152600401610dca90612af1565b60405180910390fd5b8080600101915050610d3b565b5060098390806001815401808255809150506001900390600052602060002090600d020160009091909190915060008201518160000160006101000a81548173ffffffffffffffffffffffffffffffffffffffff021916908373ffffffffffffffffffffffffffffffffffffffff1602179055506020820151816001019080519060200190610e70929190611864565b5060408201518160020155606082015181600301556080820151816004015560a082015181600501906008610ea692919061190b565b5050503373ffffffffffffffffffffffffffffffffffffffff166108fc6005549081150290604051600060405180830381858888f19350505050158015610ef1573d6000803e3d6000fd5b5060066000815480929190610f0590612b40565b9190505550600a339080600181540180825580915050600190039060005260206000200160009091909190916101000a81548173ffffffffffffffffffffffffffffffffffffffff021916908373ffffffffffffffffffffffffffffffffffffffff160217905550505050565b600a8181548110610f8257600080fd5b906000526020600020016000915054906101000a900473ffffffffffffffffffffffffffffffffffffffff1681565b6000600654600454610fc39190612b88565b905090565b60045481565b60038054610fdb906125c5565b80601f0160208091040260200160405190810160405280929190818152602001828054611007906125c5565b80156110545780601f1061102957610100808354040283529160200191611054565b820191906000526020600020905b81548152906001019060200180831161103757829003601f168201915b505050505081565b600e60009054906101000a900473ffffffffffffffffffffffffffffffffffffffff1681565b60008054906101000a900473ffffffffffffffffffffffffffffffffffffffff1681565b60606008805480602002602001604051908101604052809291908181526020016000905b8282101561126757838290600052602060002090600202016040518060400160405290816000820180546110fd906125c5565b80601f0160208091040260200160405190810160405280929190818152602001828054611129906125c5565b80156111765780601f1061114b57610100808354040283529160200191611176565b820191906000526020600020905b81548152906001019060200180831161115957829003601f168201915b5050505050815260200160018201805480602002602001604051908101604052809291908181526020016000905b828210156112505783829060005260206000200180546111c3906125c5565b80601f01602080910402602001604051908101604052809291908181526020018280546111ef906125c5565b801561123c5780601f106112115761010080835404028352916020019161123c565b820191906000526020600020905b81548152906001019060200180831161121f57829003601f168201915b5050505050815260200190600101906111a4565b5050505081525050815260200190600101906110ca565b50505050905090565b600f5481565b60065481565b60006020825111156112c3576040517f08c379a00000000000000000000000000000000000000000000000000000000081526004016112ba90612c08565b60405180910390fd5b6000805b83518110156113265780600185516112df9190612b88565b6112e99190612b88565b60086112f59190612c28565b84828151811061130857611307612891565b5b602002602001015160ff16901b8217915080806001019150506112c7565b5080915050919050565b600c5481565b600181565b60075481565b600b60009054906101000a900460ff1681565b60606009805480602002602001604051908101604052809291908181526020016000905b828210156114e157838290600052602060002090600d02016040518060c00160405290816000820160009054906101000a900473ffffffffffffffffffffffffffffffffffffffff1673ffffffffffffffffffffffffffffffffffffffff1673ffffffffffffffffffffffffffffffffffffffff1681526020016001820180548060200260200160405190810160405280929190818152602001828054801561146657602002820191906000526020600020906000905b82829054906101000a900460ff1660ff168152602001906001019060208260000104928301926001038202915080841161142f5790505b50505050508152602001600282015481526020016003820154815260200160048201548152602001600582016008806020026040519081016040528092919082600880156114c9576020028201915b8154815260200190600101908083116114b5575b50505050508152505081526020019060010190611378565b50505050905090565b60608060008060008060008060008060006002600360008054906101000a900473ffffffffffffffffffffffffffffffffffffffff16600554600454600654600c54600d54600180600b60009054906101000a900460ff168a805461154e906125c5565b80601f016020809104026020016040519081016040528092919081815260200182805461157a906125c5565b80156115c75780601f1061159c576101008083540402835291602001916115c7565b820191906000526020600020905b8154815290600101906020018083116115aa57829003601f168201915b50505050509a508980546115da906125c5565b80601f0160208091040260200160405190810160405280929190818152602001828054611606906125c5565b80156116535780601f1061162857610100808354040283529160200191611653565b820191906000526020600020905b81548152906001019060200180831161163657829003601f168201915b505050505099509a509a509a509a509a509a509a509a509a509a509a50909192939495969798999a565b600d5481565b600d544210156116c8576040517f08c379a00000000000000000000000000000000000000000000000000000000081526004016116bf90612cb6565b60405180910390fd5b6001600b60006101000a81548160ff021916908315150217905550565b600160009054906101000a900473ffffffffffffffffffffffffffffffffffffffff1673ffffffffffffffffffffffffffffffffffffffff163373ffffffffffffffffffffffffffffffffffffffff1614611775576040517f08c379a000000000000000000000000000000000000000000000000000000000815260040161176c90612d22565b60405180910390fd5b60001515600b60009054906101000a900460ff161515146117cb576040517f08c379a00000000000000000000000000000000000000000000000000000000081526004016117c290612871565b60405180910390fd5b600e60009054906101000a900473ffffffffffffffffffffffffffffffffffffffff1673ffffffffffffffffffffffffffffffffffffffff16631783efc3600f54836040518363ffffffff1660e01b815260040161182a929190612d42565b600060405180830381600087803b15801561184457600080fd5b505af1158015611858573d6000803e3d6000fd5b5050505050565b600181565b82805482825590600052602060002090601f016020900481019282156118fa5791602002820160005b838211156118cb57835183826101000a81548160ff021916908360ff160217905550926020019260010160208160000104928301926001030261188d565b80156118f85782816101000a81549060ff02191690556001016020816000010492830192600103026118cb565b505b509050611907919061194b565b5090565b826008810192821561193a579160200282015b8281111561193957825182559160200191906001019061191e565b5b509050611947919061194b565b5090565b5b8082111561196457600081600090555060010161194c565b5090565b6000604051905090565b600080fd5b600080fd5b6000819050919050565b61198f8161197c565b811461199a57600080fd5b50565b6000813590506119ac81611986565b92915050565b6000602082840312156119c8576119c7611972565b5b60006119d68482850161199d565b91505092915050565b600073ffffffffffffffffffffffffffffffffffffffff82169050919050565b6000611a0a826119df565b9050919050565b611a1a816119ff565b82525050565b611a298161197c565b82525050565b6000608082019050611a446000830187611a11565b611a516020830186611a20565b611a5e6040830185611a20565b611a6b6060830184611a20565b95945050505050565b6000602082019050611a896000830184611a20565b92915050565b6000602082019050611aa46000830184611a11565b92915050565b600081519050919050565b600082825260208201905092915050565b60005b83811015611ae4578082015181840152602081019050611ac9565b60008484015250505050565b6000601f19601f8301169050919050565b6000611b0c82611aaa565b611b168185611ab5565b9350611b26818560208601611ac6565b611b2f81611af0565b840191505092915050565b60006020820190508181036000830152611b548184611b01565b905092915050565b600080fd5b7f4e487b7100000000000000000000000000000000000000000000000000000000600052604160045260246000fd5b611b9982611af0565b810181811067ffffffffffffffff82111715611bb857611bb7611b61565b5b80604052505050565b6000611bcb611968565b9050611bd78282611b90565b919050565b600080fd5b611bea816119ff565b8114611bf557600080fd5b50565b600081359050611c0781611be1565b92915050565b600080fd5b600067ffffffffffffffff821115611c2d57611c2c611b61565b5b602082029050602081019050919050565b600080fd5b600060ff82169050919050565b611c5981611c43565b8114611c6457600080fd5b50565b600081359050611c7681611c50565b92915050565b6000611c8f611c8a84611c12565b611bc1565b90508083825260208201905060208402830185811115611cb257611cb1611c3e565b5b835b81811015611cdb5780611cc78882611c67565b845260208401935050602081019050611cb4565b5050509392505050565b600082601f830112611cfa57611cf9611c0d565b5b8135611d0a848260208601611c7c565b91505092915050565b600067ffffffffffffffff821115611d2e57611d2d611b61565b5b602082029050919050565b6000611d4c611d4784611d13565b611bc1565b90508060208402830185811115611d6657611d65611c3e565b5b835b81811015611d8f5780611d7b888261199d565b845260208401935050602081019050611d68565b5050509392505050565b600082601f830112611dae57611dad611c0d565b5b6008611dbb848285611d39565b91505092915050565b60006101a08284031215611ddb57611dda611b5c565b5b611de560c0611bc1565b90506000611df584828501611bf8565b600083015250602082013567ffffffffffffffff811115611e1957611e18611bdc565b5b611e2584828501611ce5565b6020830152506040611e398482850161199d565b6040830152506060611e4d8482850161199d565b6060830152506080611e618482850161199d565b60808301525060a0611e7584828501611d99565b60a08301525092915050565b600060208284031215611e9757611e96611972565b5b600082013567ffffffffffffffff811115611eb557611eb4611977565b5b611ec184828501611dc4565b91505092915050565b6000819050919050565b6000611eef611eea611ee5846119df565b611eca565b6119df565b9050919050565b6000611f0182611ed4565b9050919050565b6000611f1382611ef6565b9050919050565b611f2381611f08565b82525050565b6000602082019050611f3e6000830184611f1a565b92915050565b600081519050919050565b600082825260208201905092915050565b6000819050602082019050919050565b600082825260208201905092915050565b6000611f8c82611aaa565b611f968185611f70565b9350611fa6818560208601611ac6565b611faf81611af0565b840191505092915050565b600081519050919050565b600082825260208201905092915050565b6000819050602082019050919050565b6000611ff28383611f81565b905092915050565b6000602082019050919050565b600061201282611fba565b61201c8185611fc5565b93508360208202850161202e85611fd6565b8060005b8581101561206a578484038952815161204b8582611fe6565b945061205683611ffa565b925060208a01995050600181019050612032565b50829750879550505050505092915050565b600060408301600083015184820360008601526120998282611f81565b915050602083015184820360208601526120b38282612007565b9150508091505092915050565b60006120cc838361207c565b905092915050565b6000602082019050919050565b60006120ec82611f44565b6120f68185611f4f565b93508360208202850161210885611f60565b8060005b85811015612144578484038952815161212585826120c0565b9450612130836120d4565b925060208a0199505060018101905061210c565b50829750879550505050505092915050565b6000602082019050818103600083015261217081846120e1565b905092915050565b60006020828403121561218e5761218d611972565b5b600082013567ffffffffffffffff8111156121ac576121ab611977565b5b6121b884828501611ce5565b91505092915050565b60008115159050919050565b6121d6816121c1565b82525050565b60006020820190506121f160008301846121cd565b92915050565b600081519050919050565b600082825260208201905092915050565b6000819050602082019050919050565b61222c816119ff565b82525050565b600081519050919050565b600082825260208201905092915050565b6000819050602082019050919050565b61226781611c43565b82525050565b6000612279838361225e565b60208301905092915050565b6000602082019050919050565b600061229d82612232565b6122a7818561223d565b93506122b28361224e565b8060005b838110156122e35781516122ca888261226d565b97506122d583612285565b9250506001810190506122b6565b5085935050505092915050565b6122f98161197c565b82525050565b600060089050919050565b600081905092915050565b6000819050919050565b600061232b83836122f0565b60208301905092915050565b6000602082019050919050565b61234d816122ff565b612357818461230a565b925061236282612315565b8060005b8381101561239357815161237a878261231f565b965061238583612337565b925050600181019050612366565b505050505050565b60006101a0830160008301516123b46000860182612223565b50602083015184820360208601526123cc8282612292565b91505060408301516123e160408601826122f0565b5060608301516123f460608601826122f0565b50608083015161240760808601826122f0565b5060a083015161241a60a0860182612344565b508091505092915050565b6000612431838361239b565b905092915050565b6000602082019050919050565b6000612451826121f7565b61245b8185612202565b93508360208202850161246d85612213565b8060005b858110156124a9578484038952815161248a8582612425565b945061249583612439565b925060208a01995050600181019050612471565b50829750879550505050505092915050565b600060208201905081810360008301526124d58184612446565b905092915050565b60006101608201905081810360008301526124f8818e611b01565b9050818103602083015261250c818d611b01565b905061251b604083018c611a11565b612528606083018b611a20565b612535608083018a611a20565b61254260a0830189611a20565b61254f60c0830188611a20565b61255c60e0830187611a20565b61256a610100830186611a20565b612578610120830185611a20565b6125866101408301846121cd565b9c9b505050505050505050505050565b7f4e487b7100000000000000000000000000000000000000000000000000000000600052602260045260246000fd5b600060028204905060018216806125dd57607f821691505b6020821081036125f0576125ef612596565b5b50919050565b7f4f6e6c79206f776e65722063616e207769746864726177000000000000000000600082015250565b600061262c601783611ab5565b9150612637826125f6565b602082019050919050565b6000602082019050818103600083015261265b8161261f565b9050919050565b7f4e6f2062616c616e636520746f20776974686472617700000000000000000000600082015250565b6000612698601683611ab5565b91506126a382612662565b602082019050919050565b600060208201905081810360008301526126c78161268b565b9050919050565b6126d7816121c1565b81146126e257600080fd5b50565b6000815190506126f4816126ce565b92915050565b6000602082840312156127105761270f611972565b5b600061271e848285016126e5565b91505092915050565b7f416e73776572206c656e677468206d757374206d61746368207175657374696f60008201527f6e206c656e677468000000000000000000000000000000000000000000000000602082015250565b6000612783602883611ab5565b915061278e82612727565b604082019050919050565b600060208201905081810360008301526127b281612776565b9050919050565b7f53757276657920697320616c72656164792066756c6c00000000000000000000600082015250565b60006127ef601683611ab5565b91506127fa826127b9565b602082019050919050565b6000602082019050818103600083015261281e816127e2565b9050919050565b7f5375727665792069732066696e69736865640000000000000000000000000000600082015250565b600061285b601283611ab5565b915061286682612825565b602082019050919050565b6000602082019050818103600083015261288a8161284e565b9050919050565b7f4e487b7100000000000000000000000000000000000000000000000000000000600052603260045260246000fd5b7f416c726561647920616e73776572656400000000000000000000000000000000600082015250565b60006128f6601083611ab5565b9150612901826128c0565b602082019050919050565b60006020820190508181036000830152612925816128e9565b9050919050565b600082825260208201905092915050565b600061294882612232565b612952818561292c565b935061295d8361224e565b8060005b8381101561298e578151612975888261226d565b975061298083612285565b925050600181019050612961565b5085935050505092915050565b600060208201905081810360008301526129b5818461293d565b905092915050565b6000815190506129cc81611986565b92915050565b6000602082840312156129e8576129e7611972565b5b60006129f6848285016129bd565b91505092915050565b6101a082016000820151612a1660008501826122f0565b506020820151612a2960208501826122f0565b506040820151612a3c60408501826122f0565b506060820151612a4f60608501826122f0565b506080820151612a6260808501826122f0565b5060a0820151612a7560a0850182612344565b50505050565b60006101c082019050612a916000830185611a20565b612a9e60208301846129ff565b9392505050565b7f416e73776572206f7574206f6620626f756e6473000000000000000000000000600082015250565b6000612adb601483611ab5565b9150612ae682612aa5565b602082019050919050565b60006020820190508181036000830152612b0a81612ace565b9050919050565b7f4e487b7100000000000000000000000000000000000000000000000000000000600052601160045260246000fd5b6000612b4b8261197c565b91507fffffffffffffffffffffffffffffffffffffffffffffffffffffffffffffffff8203612b7d57612b7c612b11565b5b600182019050919050565b6000612b938261197c565b9150612b9e8361197c565b9250828203905081811115612bb657612bb5612b11565b5b92915050565b7f75696e74385b5d20657863656564732033322062797465730000000000000000600082015250565b6000612bf2601883611ab5565b9150612bfd82612bbc565b602082019050919050565b60006020820190508181036000830152612c2181612be5565b9050919050565b6000612c338261197c565b9150612c3e8361197c565b9250828202612c4c8161197c565b91508282048414831517612c6357612c62612b11565b5b5092915050565b7f537572766579206973206e6f742066696e697368656420796574000000000000600082015250565b6000612ca0601a83611ab5565b9150612cab82612c6a565b602082019050919050565b60006020820190508181036000830152612ccf81612c93565b9050919050565b7f4163636573732064656e6965643a204e6f7420746865206d616e616765720000600082015250565b6000612d0c601e83611ab5565b9150612d1782612cd6565b602082019050919050565b60006020820190508181036000830152612d3b81612cff565b9050919050565b6000604082019050612d576000830185611a20565b612d646020830184611a20565b939250505056fea2646970667358221220bab532bfe95e7bcb421326844adf473efd71b9e0e50d30cacc22ccf463c346c064736f6c634300081b0033",
  "linkReferences": {},
  "deployedLinkReferences": {}
}